{
  "_format": "hh-sol-artifact-1",
  "contractName": "CcipResolver",
  "sourceName": "contracts/CcipResolver.sol",
  "abi": [
    {
      "inputs": [
        {
          "internalType": "contract ENSRegistry",
          "name": "_ensRegistry",
          "type": "address"
        },
        {
          "internalType": "contract INameWrapper",
          "name": "_nameWrapper",
          "type": "address"
        }
      ],
      "stateMutability": "nonpayable",
      "type": "constructor"
    },
    {
      "inputs": [
        {
          "internalType": "address",
          "name": "sender",
          "type": "address"
        },
        {
          "internalType": "string[]",
          "name": "urls",
          "type": "string[]"
        },
        {
          "internalType": "bytes",
          "name": "callData",
          "type": "bytes"
        },
        {
          "internalType": "bytes4",
          "name": "callbackFunction",
          "type": "bytes4"
        },
        {
          "internalType": "bytes",
          "name": "extraData",
          "type": "bytes"
        }
      ],
      "name": "OffchainLookup",
      "type": "error"
    },
    {
      "inputs": [],
      "name": "UnknownVerfier",
      "type": "error"
    },
    {
      "anonymous": false,
      "inputs": [
        {
          "indexed": true,
          "internalType": "bytes32",
          "name": "node",
          "type": "bytes32"
        },
        {
          "indexed": false,
          "internalType": "address",
          "name": "verifierAddress",
          "type": "address"
        },
        {
          "indexed": false,
          "internalType": "string[]",
          "name": "gatewayUrls",
          "type": "string[]"
        }
      ],
      "name": "VerifierAdded",
      "type": "event"
    },
    {
      "inputs": [
        {
          "internalType": "bytes32",
          "name": "",
          "type": "bytes32"
        }
      ],
      "name": "ccipVerifier",
      "outputs": [
        {
          "internalType": "contract ICcipResponseVerifier",
          "name": "verifierAddress",
          "type": "address"
        }
      ],
      "stateMutability": "view",
      "type": "function"
    },
    {
      "inputs": [],
      "name": "ensRegistry",
      "outputs": [
        {
          "internalType": "contract ENSRegistry",
          "name": "",
          "type": "address"
        }
      ],
      "stateMutability": "view",
      "type": "function"
    },
    {
      "inputs": [
        {
          "internalType": "bytes",
          "name": "name",
          "type": "bytes"
        }
      ],
      "name": "getVerifierOfDomain",
      "outputs": [
        {
          "components": [
            {
              "internalType": "string[]",
              "name": "gatewayUrls",
              "type": "string[]"
            },
            {
              "internalType": "contract ICcipResponseVerifier",
              "name": "verifierAddress",
              "type": "address"
            }
          ],
          "internalType": "struct CcipResolver.CcipVerifier",
          "name": "",
          "type": "tuple"
        },
        {
          "internalType": "bytes32",
          "name": "",
          "type": "bytes32"
        }
      ],
      "stateMutability": "view",
      "type": "function"
    },
    {
      "inputs": [
        {
          "internalType": "bytes",
          "name": "name",
          "type": "bytes"
        }
      ],
      "name": "metadata",
      "outputs": [
        {
          "internalType": "string",
          "name": "",
          "type": "string"
        },
        {
          "internalType": "uint256",
          "name": "",
          "type": "uint256"
        },
        {
          "internalType": "string",
          "name": "",
          "type": "string"
        },
        {
          "internalType": "uint8",
          "name": "",
          "type": "uint8"
        },
        {
          "internalType": "bytes",
          "name": "",
          "type": "bytes"
        }
      ],
      "stateMutability": "view",
      "type": "function"
    },
    {
      "inputs": [],
      "name": "nameWrapper",
      "outputs": [
        {
          "internalType": "contract INameWrapper",
          "name": "",
          "type": "address"
        }
      ],
      "stateMutability": "view",
      "type": "function"
    },
    {
      "inputs": [
        {
          "internalType": "bytes",
          "name": "name",
          "type": "bytes"
        },
        {
          "internalType": "bytes",
          "name": "data",
          "type": "bytes"
        }
      ],
      "name": "resolve",
      "outputs": [
        {
          "internalType": "bytes",
          "name": "",
          "type": "bytes"
        }
      ],
      "stateMutability": "view",
      "type": "function"
    },
    {
      "inputs": [
        {
          "internalType": "bytes",
          "name": "response",
          "type": "bytes"
        },
        {
          "internalType": "bytes",
          "name": "extraData",
          "type": "bytes"
        }
      ],
      "name": "resolveWithProof",
      "outputs": [
        {
          "internalType": "bytes",
          "name": "",
          "type": "bytes"
        }
      ],
      "stateMutability": "view",
      "type": "function"
    },
    {
      "inputs": [
        {
          "internalType": "bytes32",
          "name": "node",
          "type": "bytes32"
        },
        {
          "internalType": "address",
          "name": "verifierAddress",
          "type": "address"
        },
        {
          "internalType": "string[]",
          "name": "urls",
          "type": "string[]"
        }
      ],
      "name": "setVerifierForDomain",
      "outputs": [],
      "stateMutability": "nonpayable",
      "type": "function"
    },
    {
      "inputs": [
        {
          "internalType": "bytes4",
          "name": "interfaceID",
          "type": "bytes4"
        }
      ],
      "name": "supportsInterface",
      "outputs": [
        {
          "internalType": "bool",
          "name": "",
          "type": "bool"
        }
      ],
      "stateMutability": "pure",
      "type": "function"
    }
  ],
  "bytecode": "0x60c06040523480156200001157600080fd5b5060405162002de638038062002de683398181016040528101906200003791906200016a565b8173ffffffffffffffffffffffffffffffffffffffff1660808173ffffffffffffffffffffffffffffffffffffffff16815250508073ffffffffffffffffffffffffffffffffffffffff1660a08173ffffffffffffffffffffffffffffffffffffffff16815250505050620001b1565b600080fd5b600073ffffffffffffffffffffffffffffffffffffffff82169050919050565b6000620000d982620000ac565b9050919050565b6000620000ed82620000cc565b9050919050565b620000ff81620000e0565b81146200010b57600080fd5b50565b6000815190506200011f81620000f4565b92915050565b60006200013282620000cc565b9050919050565b620001448162000125565b81146200015057600080fd5b50565b600081519050620001648162000139565b92915050565b60008060408385031215620001845762000183620000a7565b5b600062000194858286016200010e565b9250506020620001a78582860162000153565b9150509250929050565b60805160a051612bfa620001ec60003960008181610b8c01528181610f2d0152610f800152600081816108db0152610e910152612bfa6000f3fe608060405234801561001057600080fd5b50600436106100935760003560e01c80638a596ebe116100665780638a596ebe146101335780639061b92314610167578063a0126caa14610197578063a8e5fbc0146101c7578063f4d4d2f8146101e557610093565b806301ffc9a714610098578063354f0a89146100c8578063474591c7146100e45780637d73b23114610115575b600080fd5b6100b260048036038101906100ad9190611339565b610215565b6040516100bf9190611381565b60405180910390f35b6100e260048036038101906100dd919061165c565b61028f565b005b6100fe60048036038101906100f9919061176c565b6106b0565b60405161010c9291906119a1565b60405180910390f35b61011d6108d9565b60405161012a91906119f2565b60405180910390f35b61014d60048036038101906101489190611a68565b6108fd565b60405161015e959493929190611b89565b60405180910390f35b610181600480360381019061017c9190611bf1565b6109f3565b60405161018e9190611c72565b60405180910390f35b6101b160048036038101906101ac9190611c94565b610b4c565b6040516101be9190611cd0565b60405180910390f35b6101cf610b8a565b6040516101dc9190611d0c565b60405180910390f35b6101ff60048036038101906101fa9190611bf1565b610bae565b60405161020c9190611c72565b60405180910390f35b60007f9061b923000000000000000000000000000000000000000000000000000000007bffffffffffffffffffffffffffffffffffffffffffffffffffffffff1916827bffffffffffffffffffffffffffffffffffffffffffffffffffffffff19161480610288575061028782610e23565b5b9050919050565b6000801b83036102d4576040517f08c379a00000000000000000000000000000000000000000000000000000000081526004016102cb90611d73565b60405180910390fd5b600073ffffffffffffffffffffffffffffffffffffffff168273ffffffffffffffffffffffffffffffffffffffff1603610343576040517f08c379a000000000000000000000000000000000000000000000000000000000815260040161033a90611ddf565b60405180910390fd5b61034c83610e8d565b73ffffffffffffffffffffffffffffffffffffffff163373ffffffffffffffffffffffffffffffffffffffff16146103b9576040517f08c379a00000000000000000000000000000000000000000000000000000000081526004016103b090611e4b565b60405180910390fd5b6000808373ffffffffffffffffffffffffffffffffffffffff167f79f6f27a000000000000000000000000000000000000000000000000000000006040516024016104049190611e7a565b6040516020818303038152906040527f01ffc9a7000000000000000000000000000000000000000000000000000000007bffffffffffffffffffffffffffffffffffffffffffffffffffffffff19166020820180517bffffffffffffffffffffffffffffffffffffffffffffffffffffffff838183161783525050505060405161048e9190611ed1565b600060405180830381855afa9150503d80600081146104c9576040519150601f19603f3d011682016040523d82523d6000602084013e6104ce565b606091505b50915091508180156104e1575060208151145b80156105425750600160f81b600160f81b82600184516105019190611f17565b8151811061051257610511611f4b565b5b602001015160f81c60f81b167effffffffffffffffffffffffffffffffffffffffffffffffffffffffffffff1916145b610581576040517f08c379a000000000000000000000000000000000000000000000000000000000815260040161057890611fec565b60405180910390fd5b60008351116105c5576040517f08c379a00000000000000000000000000000000000000000000000000000000081526004016105bc9061207e565b60405180910390fd5b600060405180604001604052808581526020018673ffffffffffffffffffffffffffffffffffffffff1681525090508060008088815260200190815260200160002060008201518160000190805190602001906106239291906111c3565b5060208201518160010160006101000a81548173ffffffffffffffffffffffffffffffffffffffff021916908373ffffffffffffffffffffffffffffffffffffffff160217905550905050857f83c85f7f7423b99a5b5948f29e31a5d7087ef88402d6c71c09a63ee4c0a3af5d86866040516106a0929190612133565b60405180910390a2505050505050565b6106b861121c565b600080600090505b600184516106ce9190611f17565b8110156108a25760006106ea828661102390919063ffffffff16565b9050600080600083815260200190815260200160002060405180604001604052908160008201805480602002602001604051908101604052809291908181526020016000905b828210156107dc57838290600052602060002001805461074f90612192565b80601f016020809104026020016040519081016040528092919081815260200182805461077b90612192565b80156107c85780601f1061079d576101008083540402835291602001916107c8565b820191906000526020600020905b8154815290600101906020018083116107ab57829003601f168201915b505050505081526020019060010190610730565b5050505081526020016001820160009054906101000a900473ffffffffffffffffffffffffffffffffffffffff1673ffffffffffffffffffffffffffffffffffffffff1673ffffffffffffffffffffffffffffffffffffffff16815250509050600073ffffffffffffffffffffffffffffffffffffffff16816020015173ffffffffffffffffffffffffffffffffffffffff1614610882578082945094505050506108d4565b61089583876110d990919063ffffffff16565b90508093505050506106c0565b6040517f3aaf911b00000000000000000000000000000000000000000000000000000000815260040160405180910390fd5b915091565b7f000000000000000000000000000000000000000000000000000000000000000081565b60606000606060006060600061095688888080601f016020809104026020016040519081016040528093929190818152602001838380828437600081840152601f19601f820116905080830192505050505050506106b0565b509050806020015173ffffffffffffffffffffffffffffffffffffffff16638a596ebe89896040518363ffffffff1660e01b81526004016109989291906121f0565b600060405180830381865afa1580156109b5573d6000803e3d6000fd5b505050506040513d6000823e3d601f19601f820116820180604052508101906109de919061234c565b95509550955095509550509295509295909350565b6060600080610a4587878080601f016020809104026020016040519081016040528093929190818152602001838380828437600081840152601f19601f820116905080830192505050505050506106b0565b915091506000610a5482610e8d565b9050600081604051602001610a699190612463565b6040516020818303038152906040529050600063f8c30f6360e01b8a8a8a8a86604051602401610a9d95949392919061247e565b604051602081830303815290604052907bffffffffffffffffffffffffffffffffffffffffffffffffffffffff19166020820180517bffffffffffffffffffffffffffffffffffffffffffffffffffffffff838183161783525050505090503085600001518263f4d4d2f860e01b846040517f556f1830000000000000000000000000000000000000000000000000000000008152600401610b439594939291906124ce565b60405180910390fd5b60006020528060005260406000206000915090508060010160009054906101000a900473ffffffffffffffffffffffffffffffffffffffff16905081565b7f000000000000000000000000000000000000000000000000000000000000000081565b606060008084846004908092610bc693929190612540565b810190610bd3919061257b565b915091506000610be2836106b0565b5090506000816020015173ffffffffffffffffffffffffffffffffffffffff1663077b4e3c85856040518363ffffffff1660e01b8152600401610c269291906125f3565b602060405180830381865afa158015610c43573d6000803e3d6000fd5b505050506040513d601f19601f82011682018060405250810190610c67919061263f565b9050600060e01b7bffffffffffffffffffffffffffffffffffffffffffffffffffffffff1916817bffffffffffffffffffffffffffffffffffffffffffffffffffffffff191603610ced576040517f08c379a0000000000000000000000000000000000000000000000000000000008152600401610ce4906126b8565b60405180910390fd5b600080836020015173ffffffffffffffffffffffffffffffffffffffff16838c8c8c8c604051602401610d2394939291906126d8565b604051602081830303815290604052907bffffffffffffffffffffffffffffffffffffffffffffffffffffffff19166020820180517bffffffffffffffffffffffffffffffffffffffffffffffffffffffff8381831617835250505050604051610d8d9190611ed1565b600060405180830381855afa9150503d8060008114610dc8576040519150601f19603f3d011682016040523d82523d6000602084013e610dcd565b606091505b509150915081610e12576040517f08c379a0000000000000000000000000000000000000000000000000000000008152600401610e099061275f565b60405180910390fd5b809650505050505050949350505050565b60007f01ffc9a7000000000000000000000000000000000000000000000000000000007bffffffffffffffffffffffffffffffffffffffffffffffffffffffff1916827bffffffffffffffffffffffffffffffffffffffffffffffffffffffff1916149050919050565b60007f000000000000000000000000000000000000000000000000000000000000000073ffffffffffffffffffffffffffffffffffffffff166302571be3836040518263ffffffff1660e01b8152600401610ee8919061277f565b602060405180830381865afa158015610f05573d6000803e3d6000fd5b505050506040513d601f19601f82011682018060405250810190610f2991906127af565b90507f000000000000000000000000000000000000000000000000000000000000000073ffffffffffffffffffffffffffffffffffffffff168173ffffffffffffffffffffffffffffffffffffffff160361101e577f000000000000000000000000000000000000000000000000000000000000000073ffffffffffffffffffffffffffffffffffffffff16636352211e8360001c6040518263ffffffff1660e01b8152600401610fda91906127dc565b602060405180830381865afa158015610ff7573d6000803e3d6000fd5b505050506040513d601f19601f8201168201806040525081019061101b91906127af565b90505b919050565b600080600061103285856110d9565b915091506000801b820361109c576001855161104e9190611f17565b841461108f576040517f08c379a000000000000000000000000000000000000000000000000000000000815260040161108690612843565b60405180910390fd5b6000801b925050506110d3565b6110a68582611023565b826040516020016110b8929190612884565b60405160208183030381529060405280519060200120925050505b92915050565b6000808351831061111f576040517f08c379a0000000000000000000000000000000000000000000000000000000008152600401611116906128fc565b60405180910390fd5b600084848151811061113457611133611f4b565b5b602001015160f81c60f81b60f81c60ff169050600081111561116e5761116785600186611161919061291c565b83611197565b9250611175565b6000801b92505b60018185611183919061291c565b61118d919061291c565b9150509250929050565b6000835182846111a7919061291c565b11156111b257600080fd5b818360208601012090509392505050565b82805482825590600052602060002090810192821561120b579160200282015b8281111561120a5782518290816111fa9190612af2565b50916020019190600101906111e3565b5b509050611218919061124c565b5090565b604051806040016040528060608152602001600073ffffffffffffffffffffffffffffffffffffffff1681525090565b5b8082111561126c57600081816112639190611270565b5060010161124d565b5090565b50805461127c90612192565b6000825580601f1061128e57506112ad565b601f0160209004906000526020600020908101906112ac91906112b0565b5b50565b5b808211156112c95760008160009055506001016112b1565b5090565b6000604051905090565b600080fd5b600080fd5b60007fffffffff0000000000000000000000000000000000000000000000000000000082169050919050565b611316816112e1565b811461132157600080fd5b50565b6000813590506113338161130d565b92915050565b60006020828403121561134f5761134e6112d7565b5b600061135d84828501611324565b91505092915050565b60008115159050919050565b61137b81611366565b82525050565b60006020820190506113966000830184611372565b92915050565b6000819050919050565b6113af8161139c565b81146113ba57600080fd5b50565b6000813590506113cc816113a6565b92915050565b600073ffffffffffffffffffffffffffffffffffffffff82169050919050565b60006113fd826113d2565b9050919050565b61140d816113f2565b811461141857600080fd5b50565b60008135905061142a81611404565b92915050565b600080fd5b6000601f19601f8301169050919050565b7f4e487b7100000000000000000000000000000000000000000000000000000000600052604160045260246000fd5b61147e82611435565b810181811067ffffffffffffffff8211171561149d5761149c611446565b5b80604052505050565b60006114b06112cd565b90506114bc8282611475565b919050565b600067ffffffffffffffff8211156114dc576114db611446565b5b602082029050602081019050919050565b600080fd5b600080fd5b600067ffffffffffffffff82111561151257611511611446565b5b61151b82611435565b9050602081019050919050565b82818337600083830152505050565b600061154a611545846114f7565b6114a6565b905082815260208101848484011115611566576115656114f2565b5b611571848285611528565b509392505050565b600082601f83011261158e5761158d611430565b5b813561159e848260208601611537565b91505092915050565b60006115ba6115b5846114c1565b6114a6565b905080838252602082019050602084028301858111156115dd576115dc6114ed565b5b835b8181101561162457803567ffffffffffffffff81111561160257611601611430565b5b80860161160f8982611579565b855260208501945050506020810190506115df565b5050509392505050565b600082601f83011261164357611642611430565b5b81356116538482602086016115a7565b91505092915050565b600080600060608486031215611675576116746112d7565b5b6000611683868287016113bd565b93505060206116948682870161141b565b925050604084013567ffffffffffffffff8111156116b5576116b46112dc565b5b6116c18682870161162e565b9150509250925092565b600067ffffffffffffffff8211156116e6576116e5611446565b5b6116ef82611435565b9050602081019050919050565b600061170f61170a846116cb565b6114a6565b90508281526020810184848401111561172b5761172a6114f2565b5b611736848285611528565b509392505050565b600082601f83011261175357611752611430565b5b81356117638482602086016116fc565b91505092915050565b600060208284031215611782576117816112d7565b5b600082013567ffffffffffffffff8111156117a05761179f6112dc565b5b6117ac8482850161173e565b91505092915050565b600081519050919050565b600082825260208201905092915050565b6000819050602082019050919050565b600081519050919050565b600082825260208201905092915050565b60005b8381101561181b578082015181840152602081019050611800565b60008484015250505050565b6000611832826117e1565b61183c81856117ec565b935061184c8185602086016117fd565b61185581611435565b840191505092915050565b600061186c8383611827565b905092915050565b6000602082019050919050565b600061188c826117b5565b61189681856117c0565b9350836020820285016118a8856117d1565b8060005b858110156118e457848403895281516118c58582611860565b94506118d083611874565b925060208a019950506001810190506118ac565b50829750879550505050505092915050565b6000819050919050565b600061191b611916611911846113d2565b6118f6565b6113d2565b9050919050565b600061192d82611900565b9050919050565b600061193f82611922565b9050919050565b61194f81611934565b82525050565b600060408301600083015184820360008601526119728282611881565b91505060208301516119876020860182611946565b508091505092915050565b61199b8161139c565b82525050565b600060408201905081810360008301526119bb8185611955565b90506119ca6020830184611992565b9392505050565b60006119dc82611922565b9050919050565b6119ec816119d1565b82525050565b6000602082019050611a0760008301846119e3565b92915050565b600080fd5b60008083601f840112611a2857611a27611430565b5b8235905067ffffffffffffffff811115611a4557611a44611a0d565b5b602083019150836001820283011115611a6157611a606114ed565b5b9250929050565b60008060208385031215611a7f57611a7e6112d7565b5b600083013567ffffffffffffffff811115611a9d57611a9c6112dc565b5b611aa985828601611a12565b92509250509250929050565b600082825260208201905092915050565b6000611ad1826117e1565b611adb8185611ab5565b9350611aeb8185602086016117fd565b611af481611435565b840191505092915050565b6000819050919050565b611b1281611aff565b82525050565b600060ff82169050919050565b611b2e81611b18565b82525050565b600081519050919050565b600082825260208201905092915050565b6000611b5b82611b34565b611b658185611b3f565b9350611b758185602086016117fd565b611b7e81611435565b840191505092915050565b600060a0820190508181036000830152611ba38188611ac6565b9050611bb26020830187611b09565b8181036040830152611bc48186611ac6565b9050611bd36060830185611b25565b8181036080830152611be58184611b50565b90509695505050505050565b60008060008060408587031215611c0b57611c0a6112d7565b5b600085013567ffffffffffffffff811115611c2957611c286112dc565b5b611c3587828801611a12565b9450945050602085013567ffffffffffffffff811115611c5857611c576112dc565b5b611c6487828801611a12565b925092505092959194509250565b60006020820190508181036000830152611c8c8184611b50565b905092915050565b600060208284031215611caa57611ca96112d7565b5b6000611cb8848285016113bd565b91505092915050565b611cca81611934565b82525050565b6000602082019050611ce56000830184611cc1565b92915050565b6000611cf682611922565b9050919050565b611d0681611ceb565b82525050565b6000602082019050611d216000830184611cfd565b92915050565b7f6e6f646520697320307830000000000000000000000000000000000000000000600082015250565b6000611d5d600b83611ab5565b9150611d6882611d27565b602082019050919050565b60006020820190508181036000830152611d8c81611d50565b9050919050565b7f7665726966696572416464726573732069732030783000000000000000000000600082015250565b6000611dc9601683611ab5565b9150611dd482611d93565b602082019050919050565b60006020820190508181036000830152611df881611dbc565b9050919050565b7f6f6e6c79206e6f6465206f776e65720000000000000000000000000000000000600082015250565b6000611e35600f83611ab5565b9150611e4082611dff565b602082019050919050565b60006020820190508181036000830152611e6481611e28565b9050919050565b611e74816112e1565b82525050565b6000602082019050611e8f6000830184611e6b565b92915050565b600081905092915050565b6000611eab82611b34565b611eb58185611e95565b9350611ec58185602086016117fd565b80840191505092915050565b6000611edd8284611ea0565b915081905092915050565b7f4e487b7100000000000000000000000000000000000000000000000000000000600052601160045260246000fd5b6000611f2282611aff565b9150611f2d83611aff565b9250828203905081811115611f4557611f44611ee8565b5b92915050565b7f4e487b7100000000000000000000000000000000000000000000000000000000600052603260045260246000fd5b7f766572696669657241646472657373206973206e6f742061204343495020566560008201527f7269666965720000000000000000000000000000000000000000000000000000602082015250565b6000611fd6602683611ab5565b9150611fe182611f7a565b604082019050919050565b6000602082019050818103600083015261200581611fc9565b9050919050565b7f6174206c65617374206f6e6520676174657761792075726c2068617320746f2060008201527f62652070726f7669646564000000000000000000000000000000000000000000602082015250565b6000612068602b83611ab5565b91506120738261200c565b604082019050919050565b600060208201905081810360008301526120978161205b565b9050919050565b6120a7816113f2565b82525050565b600082825260208201905092915050565b60006120c9826117b5565b6120d381856120ad565b9350836020820285016120e5856117d1565b8060005b8581101561212157848403895281516121028582611860565b945061210d83611874565b925060208a019950506001810190506120e9565b50829750879550505050505092915050565b6000604082019050612148600083018561209e565b818103602083015261215a81846120be565b90509392505050565b7f4e487b7100000000000000000000000000000000000000000000000000000000600052602260045260246000fd5b600060028204905060018216806121aa57607f821691505b6020821081036121bd576121bc612163565b5b50919050565b60006121cf8385611b3f565b93506121dc838584611528565b6121e583611435565b840190509392505050565b6000602082019050818103600083015261220b8184866121c3565b90509392505050565b6000612227612222846114f7565b6114a6565b905082815260208101848484011115612243576122426114f2565b5b61224e8482856117fd565b509392505050565b600082601f83011261226b5761226a611430565b5b815161227b848260208601612214565b91505092915050565b61228d81611aff565b811461229857600080fd5b50565b6000815190506122aa81612284565b92915050565b6122b981611b18565b81146122c457600080fd5b50565b6000815190506122d6816122b0565b92915050565b60006122ef6122ea846116cb565b6114a6565b90508281526020810184848401111561230b5761230a6114f2565b5b6123168482856117fd565b509392505050565b600082601f83011261233357612332611430565b5b81516123438482602086016122dc565b91505092915050565b600080600080600060a08688031215612368576123676112d7565b5b600086015167ffffffffffffffff811115612386576123856112dc565b5b61239288828901612256565b95505060206123a38882890161229b565b945050604086015167ffffffffffffffff8111156123c4576123c36112dc565b5b6123d088828901612256565b93505060606123e1888289016122c7565b925050608086015167ffffffffffffffff811115612402576124016112dc565b5b61240e8882890161231e565b9150509295509295909350565b60008160601b9050919050565b60006124338261241b565b9050919050565b600061244582612428565b9050919050565b61245d612458826113f2565b61243a565b82525050565b600061246f828461244c565b60148201915081905092915050565b600060608201905081810360008301526124998187896121c3565b905081810360208301526124ae8185876121c3565b905081810360408301526124c28184611b50565b90509695505050505050565b600060a0820190506124e3600083018861209e565b81810360208301526124f581876120be565b905081810360408301526125098186611b50565b90506125186060830185611e6b565b818103608083015261252a8184611b50565b90509695505050505050565b600080fd5b600080fd5b6000808585111561255457612553612536565b5b838611156125655761256461253b565b5b6001850283019150848603905094509492505050565b60008060408385031215612592576125916112d7565b5b600083013567ffffffffffffffff8111156125b0576125af6112dc565b5b6125bc8582860161173e565b925050602083013567ffffffffffffffff8111156125dd576125dc6112dc565b5b6125e98582860161173e565b9150509250929050565b6000604082019050818103600083015261260d8185611b50565b905081810360208301526126218184611b50565b90509392505050565b6000815190506126398161130d565b92915050565b600060208284031215612655576126546112d7565b5b60006126638482850161262a565b91505092915050565b7f4e6f2063616c6c6261636b2073656c6563746f7220666f756e64000000000000600082015250565b60006126a2601a83611ab5565b91506126ad8261266c565b602082019050919050565b600060208201905081810360008301526126d181612695565b9050919050565b600060408201905081810360008301526126f38186886121c3565b905081810360208301526127088184866121c3565b905095945050505050565b7f73746174696363616c6c20746f207665726966696572206661696c6564000000600082015250565b6000612749601d83611ab5565b915061275482612713565b602082019050919050565b600060208201905081810360008301526127788161273c565b9050919050565b60006020820190506127946000830184611992565b92915050565b6000815190506127a981611404565b92915050565b6000602082840312156127c5576127c46112d7565b5b60006127d38482850161279a565b91505092915050565b60006020820190506127f16000830184611b09565b92915050565b7f6e616d65686173683a204a756e6b20617420656e64206f66206e616d65000000600082015250565b600061282d601d83611ab5565b9150612838826127f7565b602082019050919050565b6000602082019050818103600083015261285c81612820565b9050919050565b6000819050919050565b61287e6128798261139c565b612863565b82525050565b6000612890828561286d565b6020820191506128a0828461286d565b6020820191508190509392505050565b7f726561644c6162656c3a20496e646578206f7574206f6620626f756e64730000600082015250565b60006128e6601e83611ab5565b91506128f1826128b0565b602082019050919050565b60006020820190508181036000830152612915816128d9565b9050919050565b600061292782611aff565b915061293283611aff565b925082820190508082111561294a57612949611ee8565b5b92915050565b60008190508160005260206000209050919050565b60006020601f8301049050919050565b600082821b905092915050565b6000600883026129b27fffffffffffffffffffffffffffffffffffffffffffffffffffffffffffffffff82612975565b6129bc8683612975565b95508019841693508086168417925050509392505050565b60006129ef6129ea6129e584611aff565b6118f6565b611aff565b9050919050565b6000819050919050565b612a09836129d4565b612a1d612a15826129f6565b848454612982565b825550505050565b600090565b612a32612a25565b612a3d818484612a00565b505050565b5b81811015612a6157612a56600082612a2a565b600181019050612a43565b5050565b601f821115612aa657612a7781612950565b612a8084612965565b81016020851015612a8f578190505b612aa3612a9b85612965565b830182612a42565b50505b505050565b600082821c905092915050565b6000612ac960001984600802612aab565b1980831691505092915050565b6000612ae28383612ab8565b9150826002028217905092915050565b612afb826117e1565b67ffffffffffffffff811115612b1457612b13611446565b5b612b1e8254612192565b612b29828285612a65565b600060209050601f831160018114612b5c5760008415612b4a578287015190505b612b548582612ad6565b865550612bbc565b601f198416612b6a86612950565b60005b82811015612b9257848901518255600182019150602085019450602081019050612b6d565b86831015612baf5784890151612bab601f891682612ab8565b8355505b6001600288020188555050505b50505050505056fea26469706673582212204b8e6b1d12e0745fd0332ad3dcb3ded96b17873e70a1db595fb81d79addeebe164736f6c63430008110033",
  "linkReferences": {},
  "deployedLinkReferences": {}
}