{
  "_format": "hh-sol-artifact-1",
  "contractName": "CcipResolver",
  "sourceName": "contracts/CcipResolver.sol",
  "abi": [
    {
      "inputs": [
        {
          "internalType": "address",
          "name": "_owner",
          "type": "address"
        },
        {
          "internalType": "contract ENS",
          "name": "_ensRegistry",
          "type": "address"
        },
        {
          "internalType": "contract INameWrapper",
          "name": "_nameWrapper",
          "type": "address"
        },
        {
          "internalType": "string",
          "name": "_graphqlUrl",
          "type": "string"
        }
      ],
      "stateMutability": "nonpayable",
      "type": "constructor"
    },
    {
      "inputs": [],
      "name": "InvalidOperation",
      "type": "error"
    },
    {
      "inputs": [
        {
          "internalType": "address",
          "name": "sender",
          "type": "address"
        },
        {
          "internalType": "string[]",
          "name": "urls",
          "type": "string[]"
        },
        {
          "internalType": "bytes",
          "name": "callData",
          "type": "bytes"
        },
        {
          "internalType": "bytes4",
          "name": "callbackFunction",
          "type": "bytes4"
        },
        {
          "internalType": "bytes",
          "name": "extraData",
          "type": "bytes"
        }
      ],
      "name": "OffchainLookup",
      "type": "error"
    },
    {
      "anonymous": false,
      "inputs": [
        {
          "indexed": false,
          "internalType": "string",
          "name": "newGraphQlUrl",
          "type": "string"
        }
      ],
      "name": "GraphQlUrlChanged",
      "type": "event"
    },
    {
      "anonymous": false,
      "inputs": [
        {
          "indexed": false,
          "internalType": "address",
          "name": "newOwner",
          "type": "address"
        }
      ],
      "name": "OwnerChanged",
      "type": "event"
    },
    {
      "anonymous": false,
      "inputs": [
        {
          "indexed": true,
          "internalType": "bytes32",
          "name": "node",
          "type": "bytes32"
        },
        {
          "indexed": false,
          "internalType": "string",
          "name": "gatewayUrl",
          "type": "string"
        },
        {
          "indexed": false,
          "internalType": "address",
          "name": "verifierAddress",
          "type": "address"
        }
      ],
      "name": "VerifierAdded",
      "type": "event"
    },
    {
      "inputs": [
        {
          "internalType": "bytes32",
          "name": "",
          "type": "bytes32"
        }
      ],
      "name": "ccipVerifier",
      "outputs": [
        {
          "internalType": "string",
          "name": "gatewayUrl",
          "type": "string"
        },
        {
          "internalType": "contract ICcipResponseVerifier",
          "name": "verifierAddress",
          "type": "address"
        }
      ],
      "stateMutability": "view",
      "type": "function"
    },
    {
      "inputs": [],
      "name": "ensRegistry",
      "outputs": [
        {
          "internalType": "contract ENS",
          "name": "",
          "type": "address"
        }
      ],
      "stateMutability": "view",
      "type": "function"
    },
    {
      "inputs": [
        {
          "internalType": "bytes",
          "name": "name",
          "type": "bytes"
        }
      ],
      "name": "getVerifierOfDomain",
      "outputs": [
        {
          "components": [
            {
              "internalType": "string",
              "name": "gatewayUrl",
              "type": "string"
            },
            {
              "internalType": "contract ICcipResponseVerifier",
              "name": "verifierAddress",
              "type": "address"
            }
          ],
          "internalType": "struct CcipResolver.CcipVerifier",
          "name": "",
          "type": "tuple"
        },
        {
          "internalType": "bytes32",
          "name": "",
          "type": "bytes32"
        }
      ],
      "stateMutability": "view",
      "type": "function"
    },
    {
      "inputs": [],
      "name": "graphqlUrl",
      "outputs": [
        {
          "internalType": "string",
          "name": "",
          "type": "string"
        }
      ],
      "stateMutability": "view",
      "type": "function"
    },
    {
      "inputs": [],
      "name": "metadata",
      "outputs": [
        {
          "internalType": "string",
          "name": "name",
          "type": "string"
        },
        {
          "internalType": "uint256",
          "name": "coinType",
          "type": "uint256"
        },
        {
          "internalType": "string",
          "name": "graphurl",
          "type": "string"
        },
        {
          "internalType": "uint8",
          "name": "storageType",
          "type": "uint8"
        },
        {
          "internalType": "bytes",
          "name": "contextId",
          "type": "bytes"
        }
      ],
      "stateMutability": "view",
      "type": "function"
    },
    {
      "inputs": [],
      "name": "nameWrapper",
      "outputs": [
        {
          "internalType": "contract INameWrapper",
          "name": "",
          "type": "address"
        }
      ],
      "stateMutability": "view",
      "type": "function"
    },
    {
      "inputs": [],
      "name": "owner",
      "outputs": [
        {
          "internalType": "address",
          "name": "",
          "type": "address"
        }
      ],
      "stateMutability": "view",
      "type": "function"
    },
    {
      "inputs": [
        {
          "internalType": "bytes",
          "name": "name",
          "type": "bytes"
        },
        {
          "internalType": "bytes",
          "name": "data",
          "type": "bytes"
        }
      ],
      "name": "resolve",
      "outputs": [
        {
          "internalType": "bytes",
          "name": "",
          "type": "bytes"
        }
      ],
      "stateMutability": "view",
      "type": "function"
    },
    {
      "inputs": [
        {
          "internalType": "bytes",
          "name": "response",
          "type": "bytes"
        },
        {
          "internalType": "bytes",
          "name": "extraData",
          "type": "bytes"
        }
      ],
      "name": "resolveWithProof",
      "outputs": [
        {
          "internalType": "bytes",
          "name": "",
          "type": "bytes"
        }
      ],
      "stateMutability": "view",
      "type": "function"
    },
    {
      "inputs": [
        {
          "internalType": "string",
          "name": "_graphqlUrl",
          "type": "string"
        }
      ],
      "name": "setGraphUrl",
      "outputs": [],
      "stateMutability": "nonpayable",
      "type": "function"
    },
    {
      "inputs": [
        {
          "internalType": "address",
          "name": "_owner",
          "type": "address"
        }
      ],
      "name": "setOwner",
      "outputs": [],
      "stateMutability": "nonpayable",
      "type": "function"
    },
    {
      "inputs": [
        {
          "internalType": "bytes32",
          "name": "node",
          "type": "bytes32"
        },
        {
          "internalType": "address",
          "name": "verifierAddress",
          "type": "address"
        },
        {
          "internalType": "string",
          "name": "url",
          "type": "string"
        }
      ],
      "name": "setVerifierForDomain",
      "outputs": [],
      "stateMutability": "nonpayable",
      "type": "function"
    },
    {
      "inputs": [
        {
          "internalType": "bytes4",
          "name": "interfaceID",
          "type": "bytes4"
        }
      ],
      "name": "supportsInterface",
      "outputs": [
        {
          "internalType": "bool",
          "name": "",
          "type": "bool"
        }
      ],
      "stateMutability": "pure",
      "type": "function"
    }
  ],
  "bytecode": "0x60806040523480156200001157600080fd5b506040516200359b3803806200359b833981810160405281019062000037919062000397565b83600260006101000a81548173ffffffffffffffffffffffffffffffffffffffff021916908373ffffffffffffffffffffffffffffffffffffffff160217905550826000806101000a81548173ffffffffffffffffffffffffffffffffffffffff021916908373ffffffffffffffffffffffffffffffffffffffff16021790555081600160006101000a81548173ffffffffffffffffffffffffffffffffffffffff021916908373ffffffffffffffffffffffffffffffffffffffff16021790555080600390816200010a919062000673565b50505050506200075a565b6000604051905090565b600080fd5b600080fd5b600073ffffffffffffffffffffffffffffffffffffffff82169050919050565b6000620001568262000129565b9050919050565b620001688162000149565b81146200017457600080fd5b50565b60008151905062000188816200015d565b92915050565b60006200019b8262000149565b9050919050565b620001ad816200018e565b8114620001b957600080fd5b50565b600081519050620001cd81620001a2565b92915050565b6000620001e08262000149565b9050919050565b620001f281620001d3565b8114620001fe57600080fd5b50565b6000815190506200021281620001e7565b92915050565b600080fd5b600080fd5b6000601f19601f8301169050919050565b7f4e487b7100000000000000000000000000000000000000000000000000000000600052604160045260246000fd5b6200026d8262000222565b810181811067ffffffffffffffff821117156200028f576200028e62000233565b5b80604052505050565b6000620002a462000115565b9050620002b2828262000262565b919050565b600067ffffffffffffffff821115620002d557620002d462000233565b5b620002e08262000222565b9050602081019050919050565b60005b838110156200030d578082015181840152602081019050620002f0565b60008484015250505050565b6000620003306200032a84620002b7565b62000298565b9050828152602081018484840111156200034f576200034e6200021d565b5b6200035c848285620002ed565b509392505050565b600082601f8301126200037c576200037b62000218565b5b81516200038e84826020860162000319565b91505092915050565b60008060008060808587031215620003b457620003b36200011f565b5b6000620003c48782880162000177565b9450506020620003d787828801620001bc565b9350506040620003ea8782880162000201565b925050606085015167ffffffffffffffff8111156200040e576200040d62000124565b5b6200041c8782880162000364565b91505092959194509250565b600081519050919050565b7f4e487b7100000000000000000000000000000000000000000000000000000000600052602260045260246000fd5b600060028204905060018216806200047b57607f821691505b60208210810362000491576200049062000433565b5b50919050565b60008190508160005260206000209050919050565b60006020601f8301049050919050565b600082821b905092915050565b600060088302620004fb7fffffffffffffffffffffffffffffffffffffffffffffffffffffffffffffffff82620004bc565b620005078683620004bc565b95508019841693508086168417925050509392505050565b6000819050919050565b6000819050919050565b6000620005546200054e62000548846200051f565b62000529565b6200051f565b9050919050565b6000819050919050565b620005708362000533565b620005886200057f826200055b565b848454620004c9565b825550505050565b600090565b6200059f62000590565b620005ac81848462000565565b505050565b5b81811015620005d457620005c860008262000595565b600181019050620005b2565b5050565b601f8211156200062357620005ed8162000497565b620005f884620004ac565b8101602085101562000608578190505b620006206200061785620004ac565b830182620005b1565b50505b505050565b600082821c905092915050565b6000620006486000198460080262000628565b1980831691505092915050565b600062000663838362000635565b9150826002028217905092915050565b6200067e8262000428565b67ffffffffffffffff8111156200069a576200069962000233565b5b620006a6825462000462565b620006b3828285620005d8565b600060209050601f831160018114620006eb5760008415620006d6578287015190505b620006e2858262000655565b86555062000752565b601f198416620006fb8662000497565b60005b828110156200072557848901518255600182019150602085019450602081019050620006fe565b8683101562000745578489015162000741601f89168262000635565b8355505b6001600288020188555050505b505050505050565b612e31806200076a6000396000f3fe608060405234801561001057600080fd5b50600436106100cf5760003560e01c8063474591c71161008c5780639061b923116100665780639061b92314610205578063a0126caa14610235578063a8e5fbc014610266578063f4d4d2f814610284576100cf565b8063474591c7146101985780637d73b231146101c95780638da5cb5b146101e7576100cf565b806301ffc9a7146100d457806313af4035146101045780632c5bd00714610120578063392f37e91461013c5780634062b43f1461015e5780634196c5b71461017c575b600080fd5b6100ee60048036038101906100e99190611714565b6102b4565b6040516100fb919061175c565b60405180910390f35b61011e600480360381019061011991906117d5565b61032e565b005b61013a6004803603810190610135919061197e565b610439565b005b61014461083b565b604051610155959493929190611af6565b60405180910390f35b61016661093c565b6040516101739190611b5e565b60405180910390f35b61019660048036038101906101919190611b80565b6109ca565b005b6101b260048036038101906101ad9190611c29565b610aa4565b6040516101c0929190611d6b565b60405180910390f35b6101d1610d13565b6040516101de9190611dbc565b60405180910390f35b6101ef610d37565b6040516101fc9190611de6565b60405180910390f35b61021f600480360381019061021a9190611e01565b610d5d565b60405161022c9190611e82565b60405180910390f35b61024f600480360381019061024a9190611ea4565b610ee2565b60405161025d929190611ee0565b60405180910390f35b61026e610fae565b60405161027b9190611f31565b60405180910390f35b61029e60048036038101906102999190611e01565b610fd4565b6040516102ab9190611e82565b60405180910390f35b60007f9061b923000000000000000000000000000000000000000000000000000000007bffffffffffffffffffffffffffffffffffffffffffffffffffffffff1916827bffffffffffffffffffffffffffffffffffffffffffffffffffffffff191614806103275750610326826111b5565b5b9050919050565b600260009054906101000a900473ffffffffffffffffffffffffffffffffffffffff1673ffffffffffffffffffffffffffffffffffffffff163373ffffffffffffffffffffffffffffffffffffffff16146103be576040517f08c379a00000000000000000000000000000000000000000000000000000000081526004016103b590611f98565b60405180910390fd5b80600260006101000a81548173ffffffffffffffffffffffffffffffffffffffff021916908373ffffffffffffffffffffffffffffffffffffffff1602179055507fa2ea9883a321a3e97b8266c2b078bfeec6d50c711ed71f874a90d500ae2eaf368160405161042e9190611de6565b60405180910390a150565b6000801b830361047e576040517f08c379a000000000000000000000000000000000000000000000000000000000815260040161047590612004565b60405180910390fd5b600073ffffffffffffffffffffffffffffffffffffffff168273ffffffffffffffffffffffffffffffffffffffff16036104ed576040517f08c379a00000000000000000000000000000000000000000000000000000000081526004016104e490612070565b60405180910390fd5b6104f68361121f565b73ffffffffffffffffffffffffffffffffffffffff163373ffffffffffffffffffffffffffffffffffffffff1614610563576040517f08c379a000000000000000000000000000000000000000000000000000000000815260040161055a906120dc565b60405180910390fd5b6000808373ffffffffffffffffffffffffffffffffffffffff1663f4d4d2f860e01b604051602401610595919061210b565b6040516020818303038152906040527f01ffc9a7000000000000000000000000000000000000000000000000000000007bffffffffffffffffffffffffffffffffffffffffffffffffffffffff19166020820180517bffffffffffffffffffffffffffffffffffffffffffffffffffffffff838183161783525050505060405161061f9190612162565b600060405180830381855afa9150503d806000811461065a576040519150601f19603f3d011682016040523d82523d6000602084013e61065f565b606091505b5091509150818015610672575060208151145b80156106d35750600160f81b600160f81b826001845161069291906121a8565b815181106106a3576106a26121dc565b5b602001015160f81c60f81b167effffffffffffffffffffffffffffffffffffffffffffffffffffffffffffff1916145b610712576040517f08c379a00000000000000000000000000000000000000000000000000000000081526004016107099061227d565b60405180910390fd5b6000835111610756576040517f08c379a000000000000000000000000000000000000000000000000000000000815260040161074d906122e9565b60405180910390fd5b600060405180604001604052808581526020018673ffffffffffffffffffffffffffffffffffffffff168152509050806004600088815260200190815260200160002060008201518160000190816107ae919061250b565b5060208201518160010160006101000a81548173ffffffffffffffffffffffffffffffffffffffff021916908373ffffffffffffffffffffffffffffffffffffffff160217905550905050857fbfdcf2950efc559c0af42e9155f1061dbbcd684b7834beb255bb27731d1308bc858760405161082b9291906125dd565b60405180910390a2505050505050565b606060006060600060606040518060400160405280601181526020017f4f5054494d49534d205245534f4c564552000000000000000000000000000000815250603c6003600060405160200161089090612659565b6040516020818303038152906040528280546108ab90612338565b80601f01602080910402602001604051908101604052809291908181526020018280546108d790612338565b80156109245780601f106108f957610100808354040283529160200191610924565b820191906000526020600020905b81548152906001019060200180831161090757829003601f168201915b50505050509250945094509450945094509091929394565b6003805461094990612338565b80601f016020809104026020016040519081016040528092919081815260200182805461097590612338565b80156109c25780601f10610997576101008083540402835291602001916109c2565b820191906000526020600020905b8154815290600101906020018083116109a557829003601f168201915b505050505081565b600260009054906101000a900473ffffffffffffffffffffffffffffffffffffffff1673ffffffffffffffffffffffffffffffffffffffff163373ffffffffffffffffffffffffffffffffffffffff1614610a5a576040517f08c379a0000000000000000000000000000000000000000000000000000000008152600401610a5190611f98565b60405180910390fd5b8060039081610a69919061250b565b507f42515f8c831da70a1bc6849e167ec86a5622ae3cf72262fe05ff503e5432d7b781604051610a999190611b5e565b60405180910390a150565b610aac611678565b600080600090505b600185859050610ac491906121a8565b811015610cda576000610b248287878080601f016020809104026020016040519081016040528093929190818152602001838380828437600081840152601f19601f820116905080830192505050505050506113ba90919063ffffffff16565b9050600060046000838152602001908152602001600020604051806040016040529081600082018054610b5690612338565b80601f0160208091040260200160405190810160405280929190818152602001828054610b8290612338565b8015610bcf5780601f10610ba457610100808354040283529160200191610bcf565b820191906000526020600020905b815481529060010190602001808311610bb257829003601f168201915b505050505081526020016001820160009054906101000a900473ffffffffffffffffffffffffffffffffffffffff1673ffffffffffffffffffffffffffffffffffffffff1673ffffffffffffffffffffffffffffffffffffffff16815250509050600073ffffffffffffffffffffffffffffffffffffffff16816020015173ffffffffffffffffffffffffffffffffffffffff1614610c7657808294509450505050610d0c565b610ccd8388888080601f016020809104026020016040519081016040528093929190818152602001838380828437600081840152601f19601f8201169050808301925050505050505061147090919063ffffffff16565b9050809350505050610ab4565b6040517f398d4d3200000000000000000000000000000000000000000000000000000000815260040160405180910390fd5b9250929050565b60008054906101000a900473ffffffffffffffffffffffffffffffffffffffff1681565b600260009054906101000a900473ffffffffffffffffffffffffffffffffffffffff1681565b6060600080610d6c8787610aa4565b915091506000610d7b8261121f565b9050600081604051602001610d9091906126c9565b60405160208183030381529060405290506000639061b92360e01b828989604051602401610dc093929190612711565b604051602081830303815290604052907bffffffffffffffffffffffffffffffffffffffffffffffffffffffff19166020820180517bffffffffffffffffffffffffffffffffffffffffffffffffffffffff838183161783525050505090506000600167ffffffffffffffff811115610e3c57610e3b611853565b5b604051908082528060200260200182016040528015610e6f57816020015b6060815260200190600190039081610e5a5790505b509050856000015181600081518110610e8b57610e8a6121dc565b5b602002602001018190525030818363f4d4d2f860e01b856040517f556f1830000000000000000000000000000000000000000000000000000000008152600401610ed995949392919061280c565b60405180910390fd5b6004602052806000526040600020600091509050806000018054610f0590612338565b80601f0160208091040260200160405190810160405280929190818152602001828054610f3190612338565b8015610f7e5780601f10610f5357610100808354040283529160200191610f7e565b820191906000526020600020905b815481529060010190602001808311610f6157829003601f168201915b5050505050908060010160009054906101000a900473ffffffffffffffffffffffffffffffffffffffff16905082565b600160009054906101000a900473ffffffffffffffffffffffffffffffffffffffff1681565b6060600083836004908092610feb9392919061287e565b810190610ff8919061295a565b915050600061100a826004602061152e565b611013906129f7565b905060006004600083815260200190815260200160002060405180604001604052908160008201805461104590612338565b80601f016020809104026020016040519081016040528092919081815260200182805461107190612338565b80156110be5780601f10611093576101008083540402835291602001916110be565b820191906000526020600020905b8154815290600101906020018083116110a157829003601f168201915b505050505081526020016001820160009054906101000a900473ffffffffffffffffffffffffffffffffffffffff1673ffffffffffffffffffffffffffffffffffffffff1673ffffffffffffffffffffffffffffffffffffffff16815250509050806020015173ffffffffffffffffffffffffffffffffffffffff1663f4d4d2f8898989896040518563ffffffff1660e01b81526004016111629493929190612a5e565b600060405180830381865afa15801561117f573d6000803e3d6000fd5b505050506040513d6000823e3d601f19601f820116820180604052508101906111a89190612b09565b9350505050949350505050565b60007f01ffc9a7000000000000000000000000000000000000000000000000000000007bffffffffffffffffffffffffffffffffffffffffffffffffffffffff1916827bffffffffffffffffffffffffffffffffffffffffffffffffffffffff1916149050919050565b60008060009054906101000a900473ffffffffffffffffffffffffffffffffffffffff1673ffffffffffffffffffffffffffffffffffffffff166302571be3836040518263ffffffff1660e01b815260040161127b9190612b52565b602060405180830381865afa158015611298573d6000803e3d6000fd5b505050506040513d601f19601f820116820180604052508101906112bc9190612b82565b9050600160009054906101000a900473ffffffffffffffffffffffffffffffffffffffff1673ffffffffffffffffffffffffffffffffffffffff168173ffffffffffffffffffffffffffffffffffffffff16036113b557600160009054906101000a900473ffffffffffffffffffffffffffffffffffffffff1673ffffffffffffffffffffffffffffffffffffffff16636352211e8360001c6040518263ffffffff1660e01b81526004016113719190612baf565b602060405180830381865afa15801561138e573d6000803e3d6000fd5b505050506040513d601f19601f820116820180604052508101906113b29190612b82565b90505b919050565b60008060006113c98585611470565b915091506000801b820361143357600185516113e591906121a8565b8414611426576040517f08c379a000000000000000000000000000000000000000000000000000000000815260040161141d90612c16565b60405180910390fd5b6000801b9250505061146a565b61143d85826113ba565b8260405160200161144f929190612c57565b60405160208183030381529060405280519060200120925050505b92915050565b600080835183106114b6576040517f08c379a00000000000000000000000000000000000000000000000000000000081526004016114ad90612ccf565b60405180910390fd5b60008484815181106114cb576114ca6121dc565b5b602001015160f81c60f81b60f81c60ff1690506000811115611505576114fe856001866114f89190612cef565b8361164c565b925061150c565b6000801b92505b6001818561151a9190612cef565b6115249190612cef565b9150509250929050565b606081601f8361153e9190612cef565b101561157f576040517f08c379a000000000000000000000000000000000000000000000000000000000815260040161157690612d6f565b60405180910390fd5b818361158b9190612cef565b845110156115ce576040517f08c379a00000000000000000000000000000000000000000000000000000000081526004016115c590612ddb565b60405180910390fd5b60608215600081146115ef5760405191506000825260208201604052611640565b6040519150601f8416801560200281840101858101878315602002848b0101015b8183101561162d5780518352602083019250602081019050611610565b50868552601f19601f8301166040525050505b50809150509392505050565b60008351828461165c9190612cef565b111561166757600080fd5b818360208601012090509392505050565b604051806040016040528060608152602001600073ffffffffffffffffffffffffffffffffffffffff1681525090565b6000604051905090565b600080fd5b600080fd5b60007fffffffff0000000000000000000000000000000000000000000000000000000082169050919050565b6116f1816116bc565b81146116fc57600080fd5b50565b60008135905061170e816116e8565b92915050565b60006020828403121561172a576117296116b2565b5b6000611738848285016116ff565b91505092915050565b60008115159050919050565b61175681611741565b82525050565b6000602082019050611771600083018461174d565b92915050565b600073ffffffffffffffffffffffffffffffffffffffff82169050919050565b60006117a282611777565b9050919050565b6117b281611797565b81146117bd57600080fd5b50565b6000813590506117cf816117a9565b92915050565b6000602082840312156117eb576117ea6116b2565b5b60006117f9848285016117c0565b91505092915050565b6000819050919050565b61181581611802565b811461182057600080fd5b50565b6000813590506118328161180c565b92915050565b600080fd5b600080fd5b6000601f19601f8301169050919050565b7f4e487b7100000000000000000000000000000000000000000000000000000000600052604160045260246000fd5b61188b82611842565b810181811067ffffffffffffffff821117156118aa576118a9611853565b5b80604052505050565b60006118bd6116a8565b90506118c98282611882565b919050565b600067ffffffffffffffff8211156118e9576118e8611853565b5b6118f282611842565b9050602081019050919050565b82818337600083830152505050565b600061192161191c846118ce565b6118b3565b90508281526020810184848401111561193d5761193c61183d565b5b6119488482856118ff565b509392505050565b600082601f83011261196557611964611838565b5b813561197584826020860161190e565b91505092915050565b600080600060608486031215611997576119966116b2565b5b60006119a586828701611823565b93505060206119b6868287016117c0565b925050604084013567ffffffffffffffff8111156119d7576119d66116b7565b5b6119e386828701611950565b9150509250925092565b600081519050919050565b600082825260208201905092915050565b60005b83811015611a27578082015181840152602081019050611a0c565b60008484015250505050565b6000611a3e826119ed565b611a4881856119f8565b9350611a58818560208601611a09565b611a6181611842565b840191505092915050565b6000819050919050565b611a7f81611a6c565b82525050565b600060ff82169050919050565b611a9b81611a85565b82525050565b600081519050919050565b600082825260208201905092915050565b6000611ac882611aa1565b611ad28185611aac565b9350611ae2818560208601611a09565b611aeb81611842565b840191505092915050565b600060a0820190508181036000830152611b108188611a33565b9050611b1f6020830187611a76565b8181036040830152611b318186611a33565b9050611b406060830185611a92565b8181036080830152611b528184611abd565b90509695505050505050565b60006020820190508181036000830152611b788184611a33565b905092915050565b600060208284031215611b9657611b956116b2565b5b600082013567ffffffffffffffff811115611bb457611bb36116b7565b5b611bc084828501611950565b91505092915050565b600080fd5b600080fd5b60008083601f840112611be957611be8611838565b5b8235905067ffffffffffffffff811115611c0657611c05611bc9565b5b602083019150836001820283011115611c2257611c21611bce565b5b9250929050565b60008060208385031215611c4057611c3f6116b2565b5b600083013567ffffffffffffffff811115611c5e57611c5d6116b7565b5b611c6a85828601611bd3565b92509250509250929050565b600082825260208201905092915050565b6000611c92826119ed565b611c9c8185611c76565b9350611cac818560208601611a09565b611cb581611842565b840191505092915050565b6000819050919050565b6000611ce5611ce0611cdb84611777565b611cc0565b611777565b9050919050565b6000611cf782611cca565b9050919050565b6000611d0982611cec565b9050919050565b611d1981611cfe565b82525050565b60006040830160008301518482036000860152611d3c8282611c87565b9150506020830151611d516020860182611d10565b508091505092915050565b611d6581611802565b82525050565b60006040820190508181036000830152611d858185611d1f565b9050611d946020830184611d5c565b9392505050565b6000611da682611cec565b9050919050565b611db681611d9b565b82525050565b6000602082019050611dd16000830184611dad565b92915050565b611de081611797565b82525050565b6000602082019050611dfb6000830184611dd7565b92915050565b60008060008060408587031215611e1b57611e1a6116b2565b5b600085013567ffffffffffffffff811115611e3957611e386116b7565b5b611e4587828801611bd3565b9450945050602085013567ffffffffffffffff811115611e6857611e676116b7565b5b611e7487828801611bd3565b925092505092959194509250565b60006020820190508181036000830152611e9c8184611abd565b905092915050565b600060208284031215611eba57611eb96116b2565b5b6000611ec884828501611823565b91505092915050565b611eda81611cfe565b82525050565b60006040820190508181036000830152611efa8185611a33565b9050611f096020830184611ed1565b9392505050565b6000611f1b82611cec565b9050919050565b611f2b81611f10565b82525050565b6000602082019050611f466000830184611f22565b92915050565b7f6f6e6c79206f776e657200000000000000000000000000000000000000000000600082015250565b6000611f82600a836119f8565b9150611f8d82611f4c565b602082019050919050565b60006020820190508181036000830152611fb181611f75565b9050919050565b7f6e6f646520697320307830000000000000000000000000000000000000000000600082015250565b6000611fee600b836119f8565b9150611ff982611fb8565b602082019050919050565b6000602082019050818103600083015261201d81611fe1565b9050919050565b7f7665726966696572416464726573732069732030783000000000000000000000600082015250565b600061205a6016836119f8565b915061206582612024565b602082019050919050565b600060208201905081810360008301526120898161204d565b9050919050565b7f6f6e6c7920737562646f6d61696e206f776e6572000000000000000000000000600082015250565b60006120c66014836119f8565b91506120d182612090565b602082019050919050565b600060208201905081810360008301526120f5816120b9565b9050919050565b612105816116bc565b82525050565b600060208201905061212060008301846120fc565b92915050565b600081905092915050565b600061213c82611aa1565b6121468185612126565b9350612156818560208601611a09565b80840191505092915050565b600061216e8284612131565b915081905092915050565b7f4e487b7100000000000000000000000000000000000000000000000000000000600052601160045260246000fd5b60006121b382611a6c565b91506121be83611a6c565b92508282039050818111156121d6576121d5612179565b5b92915050565b7f4e487b7100000000000000000000000000000000000000000000000000000000600052603260045260246000fd5b7f766572696669657241646472657373206973206e6f742061204343495020566560008201527f7269666965720000000000000000000000000000000000000000000000000000602082015250565b60006122676026836119f8565b91506122728261220b565b604082019050919050565b600060208201905081810360008301526122968161225a565b9050919050565b7f75726c20697320656d7074790000000000000000000000000000000000000000600082015250565b60006122d3600c836119f8565b91506122de8261229d565b602082019050919050565b60006020820190508181036000830152612302816122c6565b9050919050565b7f4e487b7100000000000000000000000000000000000000000000000000000000600052602260045260246000fd5b6000600282049050600182168061235057607f821691505b60208210810361236357612362612309565b5b50919050565b60008190508160005260206000209050919050565b60006020601f8301049050919050565b600082821b905092915050565b6000600883026123cb7fffffffffffffffffffffffffffffffffffffffffffffffffffffffffffffffff8261238e565b6123d5868361238e565b95508019841693508086168417925050509392505050565b60006124086124036123fe84611a6c565b611cc0565b611a6c565b9050919050565b6000819050919050565b612422836123ed565b61243661242e8261240f565b84845461239b565b825550505050565b600090565b61244b61243e565b612456818484612419565b505050565b5b8181101561247a5761246f600082612443565b60018101905061245c565b5050565b601f8211156124bf5761249081612369565b6124998461237e565b810160208510156124a8578190505b6124bc6124b48561237e565b83018261245b565b50505b505050565b600082821c905092915050565b60006124e2600019846008026124c4565b1980831691505092915050565b60006124fb83836124d1565b9150826002028217905092915050565b612514826119ed565b67ffffffffffffffff81111561252d5761252c611853565b5b6125378254612338565b61254282828561247e565b600060209050601f8311600181146125755760008415612563578287015190505b61256d85826124ef565b8655506125d5565b601f19841661258386612369565b60005b828110156125ab57848901518255600182019150602085019450602081019050612586565b868310156125c857848901516125c4601f8916826124d1565b8355505b6001600288020188555050505b505050505050565b600060408201905081810360008301526125f78185611a33565b90506126066020830184611dd7565b9392505050565b7f4f5054494d49534d205245534f4c5645523a2000000000000000000000000000815250565b7f7b4e4f44455f4f574e45527d0000000000000000000000000000000000000000815250565b60006126648261260d565b60138201915061267382612633565b600c82019150819050919050565b60008160601b9050919050565b600061269982612681565b9050919050565b60006126ab8261268e565b9050919050565b6126c36126be82611797565b6126a0565b82525050565b60006126d582846126b2565b60148201915081905092915050565b60006126f08385611aac565b93506126fd8385846118ff565b61270683611842565b840190509392505050565b6000604082019050818103600083015261272b8186611abd565b905081810360208301526127408184866126e4565b9050949350505050565b600081519050919050565b600082825260208201905092915050565b6000819050602082019050919050565b60006127828383611c87565b905092915050565b6000602082019050919050565b60006127a28261274a565b6127ac8185612755565b9350836020820285016127be85612766565b8060005b858110156127fa57848403895281516127db8582612776565b94506127e68361278a565b925060208a019950506001810190506127c2565b50829750879550505050505092915050565b600060a0820190506128216000830188611dd7565b81810360208301526128338187612797565b905081810360408301526128478186611abd565b905061285660608301856120fc565b81810360808301526128688184611abd565b90509695505050505050565b600080fd5b600080fd5b6000808585111561289257612891612874565b5b838611156128a3576128a2612879565b5b6001850283019150848603905094509492505050565b600067ffffffffffffffff8211156128d4576128d3611853565b5b6128dd82611842565b9050602081019050919050565b60006128fd6128f8846128b9565b6118b3565b9050828152602081018484840111156129195761291861183d565b5b6129248482856118ff565b509392505050565b600082601f83011261294157612940611838565b5b81356129518482602086016128ea565b91505092915050565b60008060408385031215612971576129706116b2565b5b600083013567ffffffffffffffff81111561298f5761298e6116b7565b5b61299b8582860161292c565b925050602083013567ffffffffffffffff8111156129bc576129bb6116b7565b5b6129c88582860161292c565b9150509250929050565b6000819050602082019050919050565b60006129ee8251611802565b80915050919050565b6000612a0282611aa1565b82612a0c846129d2565b9050612a17816129e2565b92506020821015612a5757612a527fffffffffffffffffffffffffffffffffffffffffffffffffffffffffffffffff8360200360080261238e565b831692505b5050919050565b60006040820190508181036000830152612a798186886126e4565b90508181036020830152612a8e8184866126e4565b905095945050505050565b6000612aac612aa7846128b9565b6118b3565b905082815260208101848484011115612ac857612ac761183d565b5b612ad3848285611a09565b509392505050565b600082601f830112612af057612aef611838565b5b8151612b00848260208601612a99565b91505092915050565b600060208284031215612b1f57612b1e6116b2565b5b600082015167ffffffffffffffff811115612b3d57612b3c6116b7565b5b612b4984828501612adb565b91505092915050565b6000602082019050612b676000830184611d5c565b92915050565b600081519050612b7c816117a9565b92915050565b600060208284031215612b9857612b976116b2565b5b6000612ba684828501612b6d565b91505092915050565b6000602082019050612bc46000830184611a76565b92915050565b7f6e616d65686173683a204a756e6b20617420656e64206f66206e616d65000000600082015250565b6000612c00601d836119f8565b9150612c0b82612bca565b602082019050919050565b60006020820190508181036000830152612c2f81612bf3565b9050919050565b6000819050919050565b612c51612c4c82611802565b612c36565b82525050565b6000612c638285612c40565b602082019150612c738284612c40565b6020820191508190509392505050565b7f726561644c6162656c3a20496e646578206f7574206f6620626f756e64730000600082015250565b6000612cb9601e836119f8565b9150612cc482612c83565b602082019050919050565b60006020820190508181036000830152612ce881612cac565b9050919050565b6000612cfa82611a6c565b9150612d0583611a6c565b9250828201905080821115612d1d57612d1c612179565b5b92915050565b7f736c6963655f6f766572666c6f77000000000000000000000000000000000000600082015250565b6000612d59600e836119f8565b9150612d6482612d23565b602082019050919050565b60006020820190508181036000830152612d8881612d4c565b9050919050565b7f736c6963655f6f75744f66426f756e6473000000000000000000000000000000600082015250565b6000612dc56011836119f8565b9150612dd082612d8f565b602082019050919050565b60006020820190508181036000830152612df481612db8565b905091905056fea2646970667358221220df6e6a6f0a3f3d2ebb2d6850c8e84598deb123a728f6a39f476b4fe57762519564736f6c63430008110033",
  "linkReferences": {},
  "deployedLinkReferences": {}
}