{
  "_format": "hh-sol-artifact-1",
  "contractName": "L2PublicResolver",
  "sourceName": "contracts/l2/L2PublicResolver.sol",
  "abi": [
    {
      "anonymous": false,
      "inputs": [
        {
          "indexed": false,
          "internalType": "bytes",
          "name": "context",
          "type": "bytes"
        },
        {
          "indexed": false,
          "internalType": "bytes",
          "name": "name",
          "type": "bytes"
        },
        {
          "indexed": true,
          "internalType": "bytes32",
          "name": "node",
          "type": "bytes32"
        },
        {
          "indexed": true,
          "internalType": "uint256",
          "name": "contentType",
          "type": "uint256"
        }
      ],
      "name": "ABIChanged",
      "type": "event"
    },
    {
      "anonymous": false,
      "inputs": [
        {
          "indexed": false,
          "internalType": "bytes",
          "name": "context",
          "type": "bytes"
        },
        {
          "indexed": false,
          "internalType": "bytes",
          "name": "name",
          "type": "bytes"
        },
        {
          "indexed": true,
          "internalType": "bytes32",
          "name": "node",
          "type": "bytes32"
        },
        {
          "indexed": false,
          "internalType": "address",
          "name": "a",
          "type": "address"
        }
      ],
      "name": "AddrChanged",
      "type": "event"
    },
    {
      "anonymous": false,
      "inputs": [
        {
          "indexed": false,
          "internalType": "bytes",
          "name": "context",
          "type": "bytes"
        },
        {
          "indexed": false,
          "internalType": "bytes",
          "name": "name",
          "type": "bytes"
        },
        {
          "indexed": true,
          "internalType": "bytes32",
          "name": "node",
          "type": "bytes32"
        },
        {
          "indexed": false,
          "internalType": "uint256",
          "name": "coinType",
          "type": "uint256"
        },
        {
          "indexed": false,
          "internalType": "bytes",
          "name": "newAddress",
          "type": "bytes"
        }
      ],
      "name": "AddressChanged",
      "type": "event"
    },
    {
      "anonymous": false,
      "inputs": [
        {
          "indexed": false,
          "internalType": "bytes",
          "name": "context",
          "type": "bytes"
        },
        {
          "indexed": false,
          "internalType": "bytes",
          "name": "name",
          "type": "bytes"
        },
        {
          "indexed": true,
          "internalType": "bytes32",
          "name": "node",
          "type": "bytes32"
        },
        {
          "indexed": false,
          "internalType": "bytes",
          "name": "hash",
          "type": "bytes"
        }
      ],
      "name": "ContenthashChanged",
      "type": "event"
    },
    {
      "anonymous": false,
      "inputs": [
        {
          "indexed": false,
          "internalType": "bytes",
          "name": "context",
          "type": "bytes"
        },
        {
          "indexed": true,
          "internalType": "bytes32",
          "name": "node",
          "type": "bytes32"
        },
        {
          "indexed": false,
          "internalType": "bytes",
          "name": "name",
          "type": "bytes"
        },
        {
          "indexed": false,
          "internalType": "uint16",
          "name": "resource",
          "type": "uint16"
        },
        {
          "indexed": false,
          "internalType": "bytes",
          "name": "record",
          "type": "bytes"
        }
      ],
      "name": "DNSRecordChanged",
      "type": "event"
    },
    {
      "anonymous": false,
      "inputs": [
        {
          "indexed": false,
          "internalType": "bytes",
          "name": "context",
          "type": "bytes"
        },
        {
          "indexed": true,
          "internalType": "bytes32",
          "name": "node",
          "type": "bytes32"
        },
        {
          "indexed": false,
          "internalType": "bytes",
          "name": "name",
          "type": "bytes"
        },
        {
          "indexed": false,
          "internalType": "uint16",
          "name": "resource",
          "type": "uint16"
        }
      ],
      "name": "DNSRecordDeleted",
      "type": "event"
    },
    {
      "anonymous": false,
      "inputs": [
        {
          "indexed": false,
          "internalType": "bytes",
          "name": "context",
          "type": "bytes"
        },
        {
          "indexed": true,
          "internalType": "bytes32",
          "name": "node",
          "type": "bytes32"
        },
        {
          "indexed": false,
          "internalType": "bytes",
          "name": "lastzonehash",
          "type": "bytes"
        },
        {
          "indexed": false,
          "internalType": "bytes",
          "name": "zonehash",
          "type": "bytes"
        }
      ],
      "name": "DNSZonehashChanged",
      "type": "event"
    },
    {
      "anonymous": false,
      "inputs": [
        {
          "indexed": false,
          "internalType": "bytes",
          "name": "context",
          "type": "bytes"
        },
        {
          "indexed": false,
          "internalType": "bytes",
          "name": "nodeName",
          "type": "bytes"
        },
        {
          "indexed": true,
          "internalType": "bytes32",
          "name": "node",
          "type": "bytes32"
        },
        {
          "indexed": false,
          "internalType": "string",
          "name": "name",
          "type": "string"
        }
      ],
      "name": "NameChanged",
      "type": "event"
    },
    {
      "anonymous": false,
      "inputs": [
        {
          "indexed": false,
          "internalType": "bytes",
          "name": "context",
          "type": "bytes"
        },
        {
          "indexed": false,
          "internalType": "bytes",
          "name": "name",
          "type": "bytes"
        },
        {
          "indexed": true,
          "internalType": "bytes32",
          "name": "node",
          "type": "bytes32"
        },
        {
          "indexed": false,
          "internalType": "bytes",
          "name": "x",
          "type": "bytes"
        },
        {
          "indexed": false,
          "internalType": "bytes",
          "name": "y",
          "type": "bytes"
        }
      ],
      "name": "PubkeyChanged",
      "type": "event"
    },
    {
      "anonymous": false,
      "inputs": [
        {
          "indexed": false,
          "internalType": "bytes",
          "name": "context",
          "type": "bytes"
        },
        {
          "indexed": false,
          "internalType": "bytes",
          "name": "name",
          "type": "bytes"
        },
        {
          "indexed": true,
          "internalType": "bytes32",
          "name": "node",
          "type": "bytes32"
        },
        {
          "indexed": true,
          "internalType": "string",
          "name": "indexedKey",
          "type": "string"
        },
        {
          "indexed": false,
          "internalType": "string",
          "name": "key",
          "type": "string"
        },
        {
          "indexed": false,
          "internalType": "string",
          "name": "value",
          "type": "string"
        }
      ],
      "name": "TextChanged",
      "type": "event"
    },
    {
      "anonymous": false,
      "inputs": [
        {
          "indexed": false,
          "internalType": "bytes",
          "name": "context",
          "type": "bytes"
        },
        {
          "indexed": false,
          "internalType": "bytes",
          "name": "name",
          "type": "bytes"
        },
        {
          "indexed": true,
          "internalType": "bytes32",
          "name": "node",
          "type": "bytes32"
        },
        {
          "indexed": false,
          "internalType": "uint64",
          "name": "newVersion",
          "type": "uint64"
        }
      ],
      "name": "VersionChanged",
      "type": "event"
    },
    {
      "inputs": [
        {
          "internalType": "bytes",
          "name": "context",
          "type": "bytes"
        },
        {
          "internalType": "bytes32",
          "name": "node",
          "type": "bytes32"
        },
        {
          "internalType": "uint256",
          "name": "contentTypes",
          "type": "uint256"
        }
      ],
      "name": "ABI",
      "outputs": [
        {
          "internalType": "uint256",
          "name": "",
          "type": "uint256"
        },
        {
          "internalType": "bytes",
          "name": "",
          "type": "bytes"
        }
      ],
      "stateMutability": "view",
      "type": "function"
    },
    {
      "inputs": [
        {
          "internalType": "bytes",
          "name": "context",
          "type": "bytes"
        },
        {
          "internalType": "bytes32",
          "name": "node",
          "type": "bytes32"
        },
        {
          "internalType": "uint256",
          "name": "coinType",
          "type": "uint256"
        }
      ],
      "name": "addr",
      "outputs": [
        {
          "internalType": "bytes",
          "name": "",
          "type": "bytes"
        }
      ],
      "stateMutability": "view",
      "type": "function"
    },
    {
      "inputs": [
        {
          "internalType": "bytes",
          "name": "context",
          "type": "bytes"
        },
        {
          "internalType": "bytes32",
          "name": "node",
          "type": "bytes32"
        }
      ],
      "name": "addr",
      "outputs": [
        {
          "internalType": "address payable",
          "name": "",
          "type": "address"
        }
      ],
      "stateMutability": "view",
      "type": "function"
    },
    {
      "inputs": [
        {
          "internalType": "bytes",
          "name": "name",
          "type": "bytes"
        }
      ],
      "name": "clearRecords",
      "outputs": [],
      "stateMutability": "nonpayable",
      "type": "function"
    },
    {
      "inputs": [
        {
          "internalType": "bytes",
          "name": "context",
          "type": "bytes"
        },
        {
          "internalType": "bytes32",
          "name": "node",
          "type": "bytes32"
        }
      ],
      "name": "contenthash",
      "outputs": [
        {
          "internalType": "bytes",
          "name": "",
          "type": "bytes"
        }
      ],
      "stateMutability": "view",
      "type": "function"
    },
    {
      "inputs": [
        {
          "internalType": "bytes",
          "name": "context",
          "type": "bytes"
        },
        {
          "internalType": "bytes32",
          "name": "node",
          "type": "bytes32"
        },
        {
          "internalType": "bytes32",
          "name": "name",
          "type": "bytes32"
        },
        {
          "internalType": "uint16",
          "name": "resource",
          "type": "uint16"
        }
      ],
      "name": "dnsRecord",
      "outputs": [
        {
          "internalType": "bytes",
          "name": "",
          "type": "bytes"
        }
      ],
      "stateMutability": "view",
      "type": "function"
    },
    {
      "inputs": [
        {
          "internalType": "bytes",
          "name": "context",
          "type": "bytes"
        },
        {
          "internalType": "bytes32",
          "name": "node",
          "type": "bytes32"
        },
        {
          "internalType": "bytes32",
          "name": "name",
          "type": "bytes32"
        }
      ],
      "name": "hasDNSRecords",
      "outputs": [
        {
          "internalType": "bool",
          "name": "",
          "type": "bool"
        }
      ],
      "stateMutability": "view",
      "type": "function"
    },
    {
      "inputs": [
        {
          "internalType": "bytes[]",
          "name": "data",
          "type": "bytes[]"
        }
      ],
      "name": "multicall",
      "outputs": [
        {
          "internalType": "bytes[]",
          "name": "results",
          "type": "bytes[]"
        }
      ],
      "stateMutability": "nonpayable",
      "type": "function"
    },
    {
      "inputs": [
        {
          "internalType": "bytes32",
          "name": "nodehash",
          "type": "bytes32"
        },
        {
          "internalType": "bytes[]",
          "name": "data",
          "type": "bytes[]"
        }
      ],
      "name": "multicallWithNodeCheck",
      "outputs": [
        {
          "internalType": "bytes[]",
          "name": "results",
          "type": "bytes[]"
        }
      ],
      "stateMutability": "nonpayable",
      "type": "function"
    },
    {
      "inputs": [
        {
          "internalType": "bytes",
          "name": "context",
          "type": "bytes"
        },
        {
          "internalType": "bytes32",
          "name": "node",
          "type": "bytes32"
        }
      ],
      "name": "name",
      "outputs": [
        {
          "internalType": "string",
          "name": "",
          "type": "string"
        }
      ],
      "stateMutability": "view",
      "type": "function"
    },
    {
      "inputs": [
        {
          "internalType": "bytes",
          "name": "context",
          "type": "bytes"
        },
        {
          "internalType": "bytes32",
          "name": "node",
          "type": "bytes32"
        }
      ],
      "name": "pubkey",
      "outputs": [
        {
          "internalType": "bytes",
          "name": "x",
          "type": "bytes"
        },
        {
          "internalType": "bytes",
          "name": "y",
          "type": "bytes"
        }
      ],
      "stateMutability": "view",
      "type": "function"
    },
    {
      "inputs": [
        {
          "internalType": "bytes",
          "name": "",
          "type": "bytes"
        },
        {
          "internalType": "bytes32",
          "name": "",
          "type": "bytes32"
        }
      ],
      "name": "recordVersions",
      "outputs": [
        {
          "internalType": "uint64",
          "name": "",
          "type": "uint64"
        }
      ],
      "stateMutability": "view",
      "type": "function"
    },
    {
      "inputs": [
        {
          "internalType": "bytes",
          "name": "name",
          "type": "bytes"
        },
        {
          "internalType": "uint256",
          "name": "contentType",
          "type": "uint256"
        },
        {
          "internalType": "bytes",
          "name": "data",
          "type": "bytes"
        }
      ],
      "name": "setABI",
      "outputs": [],
      "stateMutability": "nonpayable",
      "type": "function"
    },
    {
      "inputs": [
        {
          "internalType": "bytes",
          "name": "name",
          "type": "bytes"
        },
        {
          "internalType": "uint256",
          "name": "coinType",
          "type": "uint256"
        },
        {
          "internalType": "bytes",
          "name": "a",
          "type": "bytes"
        }
      ],
      "name": "setAddr",
      "outputs": [],
      "stateMutability": "nonpayable",
      "type": "function"
    },
    {
      "inputs": [
        {
          "internalType": "bytes",
          "name": "name",
          "type": "bytes"
        },
        {
          "internalType": "address",
          "name": "a",
          "type": "address"
        }
      ],
      "name": "setAddr",
      "outputs": [],
      "stateMutability": "nonpayable",
      "type": "function"
    },
    {
      "inputs": [
        {
          "internalType": "bytes",
          "name": "name",
          "type": "bytes"
        },
        {
          "internalType": "bytes",
          "name": "hash",
          "type": "bytes"
        }
      ],
      "name": "setContenthash",
      "outputs": [],
      "stateMutability": "nonpayable",
      "type": "function"
    },
    {
      "inputs": [
        {
          "internalType": "bytes32",
          "name": "node",
          "type": "bytes32"
        },
        {
          "internalType": "bytes",
          "name": "data",
          "type": "bytes"
        }
      ],
      "name": "setDNSRecords",
      "outputs": [],
      "stateMutability": "nonpayable",
      "type": "function"
    },
    {
      "inputs": [
        {
          "internalType": "bytes",
          "name": "nodeName",
          "type": "bytes"
        },
        {
          "internalType": "string",
          "name": "newName",
          "type": "string"
        }
      ],
      "name": "setName",
      "outputs": [],
      "stateMutability": "nonpayable",
      "type": "function"
    },
    {
      "inputs": [
        {
          "internalType": "bytes",
          "name": "name",
          "type": "bytes"
        },
        {
          "internalType": "bytes",
          "name": "x",
          "type": "bytes"
        },
        {
          "internalType": "bytes",
          "name": "y",
          "type": "bytes"
        }
      ],
      "name": "setPubkey",
      "outputs": [],
      "stateMutability": "nonpayable",
      "type": "function"
    },
    {
      "inputs": [
        {
          "internalType": "bytes",
          "name": "name",
          "type": "bytes"
        },
        {
          "internalType": "string",
          "name": "key",
          "type": "string"
        },
        {
          "internalType": "string",
          "name": "value",
          "type": "string"
        }
      ],
      "name": "setText",
      "outputs": [],
      "stateMutability": "nonpayable",
      "type": "function"
    },
    {
      "inputs": [
        {
          "internalType": "bytes32",
          "name": "node",
          "type": "bytes32"
        },
        {
          "internalType": "bytes",
          "name": "hash",
          "type": "bytes"
        }
      ],
      "name": "setZonehash",
      "outputs": [],
      "stateMutability": "nonpayable",
      "type": "function"
    },
    {
      "inputs": [
        {
          "internalType": "bytes4",
          "name": "interfaceID",
          "type": "bytes4"
        }
      ],
      "name": "supportsInterface",
      "outputs": [
        {
          "internalType": "bool",
          "name": "",
          "type": "bool"
        }
      ],
      "stateMutability": "view",
      "type": "function"
    },
    {
      "inputs": [
        {
          "internalType": "bytes",
          "name": "context",
          "type": "bytes"
        },
        {
          "internalType": "bytes32",
          "name": "node",
          "type": "bytes32"
        },
        {
          "internalType": "string",
          "name": "key",
          "type": "string"
        }
      ],
      "name": "text",
      "outputs": [
        {
          "internalType": "string",
          "name": "",
          "type": "string"
        }
      ],
      "stateMutability": "view",
      "type": "function"
    },
    {
      "inputs": [
        {
          "internalType": "uint64",
          "name": "",
          "type": "uint64"
        },
        {
          "internalType": "bytes",
          "name": "",
          "type": "bytes"
        },
        {
          "internalType": "bytes32",
          "name": "",
          "type": "bytes32"
        },
        {
          "internalType": "uint256",
          "name": "",
          "type": "uint256"
        }
      ],
      "name": "versionable_addresses",
      "outputs": [
        {
          "internalType": "bytes",
          "name": "",
          "type": "bytes"
        }
      ],
      "stateMutability": "view",
      "type": "function"
    },
    {
      "inputs": [
        {
          "internalType": "uint64",
          "name": "",
          "type": "uint64"
        },
        {
          "internalType": "bytes",
          "name": "",
          "type": "bytes"
        },
        {
          "internalType": "bytes32",
          "name": "",
          "type": "bytes32"
        }
      ],
      "name": "versionable_names",
      "outputs": [
        {
          "internalType": "string",
          "name": "",
          "type": "string"
        }
      ],
      "stateMutability": "view",
      "type": "function"
    },
    {
      "inputs": [
        {
          "internalType": "uint64",
          "name": "",
          "type": "uint64"
        },
        {
          "internalType": "bytes",
          "name": "",
          "type": "bytes"
        },
        {
          "internalType": "bytes32",
          "name": "",
          "type": "bytes32"
        },
        {
          "internalType": "string",
          "name": "",
          "type": "string"
        }
      ],
      "name": "versionable_texts",
      "outputs": [
        {
          "internalType": "string",
          "name": "",
          "type": "string"
        }
      ],
      "stateMutability": "view",
      "type": "function"
    },
    {
      "inputs": [
        {
          "internalType": "bytes",
          "name": "context",
          "type": "bytes"
        },
        {
          "internalType": "bytes32",
          "name": "node",
          "type": "bytes32"
        }
      ],
      "name": "zonehash",
      "outputs": [
        {
          "internalType": "bytes",
          "name": "",
          "type": "bytes"
        }
      ],
      "stateMutability": "view",
      "type": "function"
    }
  ],
  "bytecode": "0x608060405234801561001057600080fd5b5061598380620000216000396000f3fe608060405234801561001057600080fd5b50600436106101a85760003560e01c8063ac9650d8116100f9578063c7279f8811610097578063dd1f458c11610071578063dd1f458c1461055f578063df41ebf51461058f578063e32954eb146105ab578063f00eebf4146105db576101a8565b8063c7279f881461050b578063ce3decdc14610527578063d26f550e14610543576101a8565b8063bbf0d758116100d3578063bbf0d7581461045f578063c0f8c7781461048f578063c4b82906146104bf578063c5d7badd146104ef576101a8565b8063ac9650d8146103e3578063b822b3c614610413578063bb9982a014610443576101a8565b806313e4ae6a11610166578063493cf94d11610140578063493cf94d14610322578063639d1d1b14610352578063780a54ba14610383578063a54e349d146103b3576101a8565b806313e4ae6a146102a6578063183f516b146102c25780634821b72c146102f2576101a8565b8062bf4001146101ad57806301ffc9a7146101de57806309cb26871461020e5780630af179d71461023e5780630ce0112a1461025a5780630f54673f14610276575b600080fd5b6101c760048036038101906101c2919061397a565b6105f7565b6040516101d5929190613a8d565b60405180910390f35b6101f860048036038101906101f39190613b15565b6107b5565b6040516102059190613b5d565b60405180910390f35b61022860048036038101906102239190613b78565b6107c7565b6040516102359190613bd8565b60405180910390f35b61025860048036038101906102539190613bfa565b6108f5565b005b610274600480360381019061026f9190613cb0565b610b81565b005b610290600480360381019061028b9190613f42565b610cef565b60405161029d9190614036565b60405180910390f35b6102c060048036038101906102bb9190614058565b610de2565b005b6102dc60048036038101906102d79190614122565b610fae565b6040516102e99190613bd8565b60405180910390f35b61030c600480360381019061030791906141aa565b611108565b6040516103199190614215565b60405180910390f35b61033c60048036038101906103379190613b78565b611154565b6040516103499190614036565b60405180910390f35b61036c60048036038101906103679190613b78565b611282565b60405161037a929190614230565b60405180910390f35b61039d6004803603810190610398919061397a565b6114a5565b6040516103aa9190613bd8565b60405180910390f35b6103cd60048036038101906103c89190614267565b6115e5565b6040516103da9190613b5d565b60405180910390f35b6103fd60048036038101906103f89190614331565b6116b2565b60405161040a919061448a565b60405180910390f35b61042d600480360381019061042891906144ac565b6116ca565b60405161043a9190613bd8565b60405180910390f35b61045d6004803603810190610458919061452f565b6117a7565b005b61047960048036038101906104749190613b78565b6119d7565b6040516104869190614624565b60405180910390f35b6104a960048036038101906104a4919061463f565b611a10565b6040516104b69190614036565b60405180910390f35b6104d960048036038101906104d49190613b78565b611ae0565b6040516104e69190613bd8565b60405180910390f35b610509600480360381019061050491906146ae565b611c0e565b005b6105256004803603810190610520919061472f565b611d7c565b005b610541600480360381019061053c9190613bfa565b611f26565b005b61055d600480360381019061055891906147e3565b61211c565b005b61057960048036038101906105749190614878565b6122b4565b6040516105869190614036565b60405180910390f35b6105a960048036038101906105a4919061490d565b612402565b005b6105c560048036038101906105c0919061495a565b612583565b6040516105d2919061448a565b60405180910390f35b6105f560048036038101906105f091906149f8565b612599565b005b60006060600060036000808989604051610612929190614a88565b9081526020016040518091039020600088815260200190815260200160002060009054906101000a900467ffffffffffffffff1667ffffffffffffffff1667ffffffffffffffff1681526020019081526020016000208787604051610678929190614a88565b9081526020016040518091039020600086815260200190815260200160002090506000600190505b848111610793576000858216141580156106d85750600082600083815260200190815260200160002080546106d490614ad0565b9050115b1561078757808260008381526020019081526020016000208080546106fc90614ad0565b80601f016020809104026020016040519081016040528092919081815260200182805461072890614ad0565b80156107755780601f1061074a57610100808354040283529160200191610775565b820191906000526020600020905b81548152906001019060200180831161075857829003601f168201915b505050505090509350935050506107ac565b600181901b90506106a0565b5060006040518060200160405280600081525092509250505b94509492505050565b60006107c0826125b3565b9050919050565b6060600560008086866040516107de929190614a88565b9081526020016040518091039020600085815260200190815260200160002060009054906101000a900467ffffffffffffffff1667ffffffffffffffff1667ffffffffffffffff1681526020019081526020016000208484604051610844929190614a88565b90815260200160405180910390206000838152602001908152602001600020805461086e90614ad0565b80601f016020809104026020016040519081016040528092919081815260200182805461089a90614ad0565b80156108e75780601f106108bc576101008083540402835291602001916108e7565b820191906000526020600020905b8154815290600101906020018083116108ca57829003601f168201915b505050505090509392505050565b6000806060806000803360405160200161090f9190614b49565b6040516020818303038152906040529050600080826040516109319190614b95565b908152602001604051809103902060008b815260200190815260200160002060009054906101000a900467ffffffffffffffff16905060006109c160008b8b8080601f016020809104026020016040519081016040528093929190818152602001838380828437600081840152601f19601f8201169050808301925050505050505061262d90919063ffffffff16565b90505b6109cd81612657565b610b035760008861ffff1603610a2857806040015197506109ed8161266d565b955085604051602001610a009190614b95565b604051602081830303815290604052805190602001209350610a21816126a4565b9450610af5565b6000610a338261266d565b9050816040015161ffff168961ffff16141580610a605750610a5e81886126dd90919063ffffffff16565b155b15610af357610acc8c888b8e8e8080601f016020809104026020016040519081016040528093929190818152602001838380828437600081840152601f19601f820116905080830192505050505050508c8d8860200151610ac19190614bdb565b60008d51148a612704565b816040015198508160200151975080965086805190602001209450610af0826126a4565b95505b505b610afe81612b58565b6109c4565b50600085511115610b7557610b748a86898c8c8080601f016020809104026020016040519081016040528093929190818152602001838380828437600081840152601f19601f820116905080830192505050505050508a8b8f8f9050610b699190614bdb565b60008b511488612704565b5b50505050505050505050565b6000610bdb600086868080601f016020809104026020016040519081016040528093929190818152602001838380828437600081840152601f19601f82011690508083019250505050505050612c9e90919063ffffffff16565b9050600033604051602001610bf09190614b49565b60405160208183030381529060405290508383600860008085604051610c169190614b95565b9081526020016040518091039020600087815260200190815260200160002060009054906101000a900467ffffffffffffffff1667ffffffffffffffff1667ffffffffffffffff16815260200190815260200160002083604051610c7a9190614b95565b908152602001604051809103902060008581526020019081526020016000209182610ca6929190614dc6565b50817f513f61c25d59c9c349ea306b3b9dee9d5c8344dee8cdf0441d1f5fbe7231620a8288888888604051610cdf959493929190614ef0565b60405180910390a2505050505050565b600260205283600052604060002083805160208101820180518482526020830160208501208183528095505050505050602052816000526040600020818051602081018201805184825260208301602085012081835280955050505050506000935093505050508054610d6190614ad0565b80601f0160208091040260200160405190810160405280929190818152602001828054610d8d90614ad0565b8015610dda5780601f10610daf57610100808354040283529160200191610dda565b820191906000526020600020905b815481529060010190602001808311610dbd57829003601f168201915b505050505081565b6000610e3c600086868080601f016020809104026020016040519081016040528093929190818152602001838380828437600081840152601f19601f82011690508083019250505050505050612c9e90919063ffffffff16565b9050600033604051602001610e519190614b49565b6040516020818303038152906040529050817ff0b0d242ffa10d1d4bb43131f0c89418f026695502198978526a83cac3600c008288888888604051610e9a959493929190614f40565b60405180910390a2603c8403610ef157817fe164bbb35123c72b5d5b113601481520e2e915105077f173771b7a7a31ac0783828888610ed888612d54565b604051610ee89493929190614ff1565b60405180910390a25b82600160008084604051610f059190614b95565b9081526020016040518091039020600086815260200190815260200160002060009054906101000a900467ffffffffffffffff1667ffffffffffffffff1667ffffffffffffffff16815260200190815260200160002082604051610f699190614b95565b9081526020016040518091039020600084815260200190815260200160002060008681526020019081526020016000209081610fa59190615093565b50505050505050565b606060066000808888604051610fc5929190614a88565b9081526020016040518091039020600087815260200190815260200160002060009054906101000a900467ffffffffffffffff1667ffffffffffffffff1667ffffffffffffffff168152602001908152602001600020868660405161102b929190614a88565b90815260200160405180910390206000858152602001908152602001600020600084815260200190815260200160002060008361ffff1661ffff168152602001908152602001600020805461107f90614ad0565b80601f01602080910402602001604051908101604052809291908181526020018280546110ab90614ad0565b80156110f85780601f106110cd576101008083540402835291602001916110f8565b820191906000526020600020905b8154815290600101906020018083116110db57829003601f168201915b5050505050905095945050505050565b6000828051602081018201805184825260208301602085012081835280955050505050506020528060005260406000206000915091509054906101000a900467ffffffffffffffff1681565b60606008600080868660405161116b929190614a88565b9081526020016040518091039020600085815260200190815260200160002060009054906101000a900467ffffffffffffffff1667ffffffffffffffff1667ffffffffffffffff16815260200190815260200160002084846040516111d1929190614a88565b9081526020016040518091039020600083815260200190815260200160002080546111fb90614ad0565b80601f016020809104026020016040519081016040528092919081815260200182805461122790614ad0565b80156112745780601f1061124957610100808354040283529160200191611274565b820191906000526020600020905b81548152906001019060200180831161125757829003601f168201915b505050505090509392505050565b6060806000808686604051611298929190614a88565b9081526020016040518091039020600085815260200190815260200160002060009054906101000a900467ffffffffffffffff169050600960008267ffffffffffffffff1667ffffffffffffffff1681526020019081526020016000208686604051611305929190614a88565b90815260200160405180910390206000858152602001908152602001600020600001600960008367ffffffffffffffff1667ffffffffffffffff168152602001908152602001600020878760405161135e929190614a88565b9081526020016040518091039020600086815260200190815260200160002060010181805461138c90614ad0565b80601f01602080910402602001604051908101604052809291908181526020018280546113b890614ad0565b80156114055780601f106113da57610100808354040283529160200191611405565b820191906000526020600020905b8154815290600101906020018083116113e857829003601f168201915b5050505050915080805461141890614ad0565b80601f016020809104026020016040519081016040528092919081815260200182805461144490614ad0565b80156114915780601f1061146657610100808354040283529160200191611491565b820191906000526020600020905b81548152906001019060200180831161147457829003601f168201915b505050505090509250925050935093915050565b6060600160008087876040516114bc929190614a88565b9081526020016040518091039020600086815260200190815260200160002060009054906101000a900467ffffffffffffffff1667ffffffffffffffff1667ffffffffffffffff1681526020019081526020016000208585604051611522929190614a88565b908152602001604051809103902060008481526020019081526020016000206000838152602001908152602001600020805461155d90614ad0565b80601f016020809104026020016040519081016040528092919081815260200182805461158990614ad0565b80156115d65780601f106115ab576101008083540402835291602001916115d6565b820191906000526020600020905b8154815290600101906020018083116115b957829003601f168201915b50505050509050949350505050565b600080600760008088886040516115fd929190614a88565b9081526020016040518091039020600087815260200190815260200160002060009054906101000a900467ffffffffffffffff1667ffffffffffffffff1667ffffffffffffffff1681526020019081526020016000208686604051611663929190614a88565b90815260200160405180910390206000858152602001908152602001600020600084815260200190815260200160002060009054906101000a900461ffff1661ffff1614159050949350505050565b60606116c26000801b8484612d77565b905092915050565b600160205283600052604060002083805160208101820180518482526020830160208501208183528095505050505050602052816000526040600020602052806000526040600020600093509350505050805461172690614ad0565b80601f016020809104026020016040519081016040528092919081815260200182805461175290614ad0565b801561179f5780601f106117745761010080835404028352916020019161179f565b820191906000526020600020905b81548152906001019060200180831161178257829003601f168201915b505050505081565b6000336040516020016117ba9190614b49565b60405160208183030381529060405290506000611825600089898080601f016020809104026020016040519081016040528093929190818152602001838380828437600081840152601f19601f82011690508083019250505050505050612c9e90919063ffffffff16565b9050604051806040016040528087878080601f016020809104026020016040519081016040528093929190818152602001838380828437600081840152601f19601f82011690508083019250505050505050815260200185858080601f016020809104026020016040519081016040528093929190818152602001838380828437600081840152601f19601f820116905080830192505050505050508152506009600080856040516118d79190614b95565b9081526020016040518091039020600085815260200190815260200160002060009054906101000a900467ffffffffffffffff1667ffffffffffffffff1667ffffffffffffffff1681526020019081526020016000208360405161193b9190614b95565b90815260200160405180910390206000838152602001908152602001600020600082015181600001908161196f9190615093565b5060208201518160010190816119859190615093565b50905050807fd8b6bb891a26699799869daf5535f7f61adb5d80e5bea0721f06177ecfc34c4d838a8a8a8a8a8a6040516119c59796959493929190615165565b60405180910390a25050505050505050565b6000806119e7858585603c6114a5565b905060008151036119fc576000915050611a09565b611a0581612d54565b9150505b9392505050565b60086020528260005260406000208280516020810182018051848252602083016020850120818352809550505050505060205280600052604060002060009250925050508054611a5f90614ad0565b80601f0160208091040260200160405190810160405280929190818152602001828054611a8b90614ad0565b8015611ad85780601f10611aad57610100808354040283529160200191611ad8565b820191906000526020600020905b815481529060010190602001808311611abb57829003601f168201915b505050505081565b606060046000808686604051611af7929190614a88565b9081526020016040518091039020600085815260200190815260200160002060009054906101000a900467ffffffffffffffff1667ffffffffffffffff1667ffffffffffffffff1681526020019081526020016000208484604051611b5d929190614a88565b908152602001604051809103902060008381526020019081526020016000208054611b8790614ad0565b80601f0160208091040260200160405190810160405280929190818152602001828054611bb390614ad0565b8015611c005780601f10611bd557610100808354040283529160200191611c00565b820191906000526020600020905b815481529060010190602001808311611be357829003601f168201915b505050505090509392505050565b6000611c68600086868080601f016020809104026020016040519081016040528093929190818152602001838380828437600081840152601f19601f82011690508083019250505050505050612c9e90919063ffffffff16565b9050600033604051602001611c7d9190614b49565b60405160208183030381529060405290508383600460008085604051611ca39190614b95565b9081526020016040518091039020600087815260200190815260200160002060009054906101000a900467ffffffffffffffff1667ffffffffffffffff1667ffffffffffffffff16815260200190815260200160002083604051611d079190614b95565b908152602001604051809103902060008581526020019081526020016000209182611d339291906151d7565b50817f36280a525d16c174ebc8e2cefaa0ee2772cba19e1762480e5a97a4f36b369fee8288888888604051611d6c9594939291906152a7565b60405180910390a2505050505050565b6000611dd6600088888080601f016020809104026020016040519081016040528093929190818152602001838380828437600081840152601f19601f82011690508083019250505050505050612c9e90919063ffffffff16565b9050600033604051602001611deb9190614b49565b60405160208183030381529060405290508383600260008085604051611e119190614b95565b9081526020016040518091039020600087815260200190815260200160002060009054906101000a900467ffffffffffffffff1667ffffffffffffffff1667ffffffffffffffff16815260200190815260200160002083604051611e759190614b95565b908152602001604051809103902060008581526020019081526020016000208888604051611ea4929190615327565b90815260200160405180910390209182611ebf929190614dc6565b508585604051611ed0929190615327565b6040518091039020827faba60e8c32ab4ec8e4da108fb0927d3bd435d955f0d7f1613ad1c034dc55a1de838b8b8b8b8b8b604051611f149796959493929190615340565b60405180910390a35050505050505050565b600033604051602001611f399190614b49565b604051602081830303815290604052905060008082604051611f5b9190614b95565b9081526020016040518091039020600086815260200190815260200160002060009054906101000a900467ffffffffffffffff1690506000600560008367ffffffffffffffff1667ffffffffffffffff16815260200190815260200160002083604051611fc89190614b95565b908152602001604051809103902060008781526020019081526020016000208054611ff290614ad0565b80601f016020809104026020016040519081016040528092919081815260200182805461201e90614ad0565b801561206b5780601f106120405761010080835404028352916020019161206b565b820191906000526020600020905b81548152906001019060200180831161204e57829003601f168201915b505050505090508484600560008567ffffffffffffffff1667ffffffffffffffff168152602001908152602001600020856040516120a99190614b95565b9081526020016040518091039020600089815260200190815260200160002091826120d59291906151d7565b50857fcedc400dcc193ec15f5b42021efe54dea2804ea59d09bac1519f640caf68bf4f8483888860405161210c94939291906153a7565b60405180910390a2505050505050565b60008360018561212c9190614bdb565b161461213757600080fd5b6000612191600087878080601f016020809104026020016040519081016040528093929190818152602001838380828437600081840152601f19601f82011690508083019250505050505050612c9e90919063ffffffff16565b90506000336040516020016121a69190614b49565b604051602081830303815290604052905083836003600080856040516121cc9190614b95565b9081526020016040518091039020600087815260200190815260200160002060009054906101000a900467ffffffffffffffff1667ffffffffffffffff1667ffffffffffffffff168152602001908152602001600020836040516122309190614b95565b908152602001604051809103902060008581526020019081526020016000206000888152602001908152602001600020918261226d9291906151d7565b5084827f333d7bb34009761f4ff7f659a8b796ef6821c2f09927affab6adc5505be116bd838a8a6040516122a3939291906153f5565b60405180910390a350505050505050565b6060600260008088886040516122cb929190614a88565b9081526020016040518091039020600087815260200190815260200160002060009054906101000a900467ffffffffffffffff1667ffffffffffffffff1667ffffffffffffffff1681526020019081526020016000208686604051612331929190614a88565b908152602001604051809103902060008581526020019081526020016000208383604051612360929190615327565b9081526020016040518091039020805461237990614ad0565b80601f01602080910402602001604051908101604052809291908181526020018280546123a590614ad0565b80156123f25780601f106123c7576101008083540402835291602001916123f2565b820191906000526020600020905b8154815290600101906020018083116123d557829003601f168201915b5050505050905095945050505050565b600061245c600084848080601f016020809104026020016040519081016040528093929190818152602001838380828437600081840152601f19601f82011690508083019250505050505050612c9e90919063ffffffff16565b90506000336040516020016124719190614b49565b60405160208183030381529060405290506000816040516124929190614b95565b90815260200160405180910390206000838152602001908152602001600020600081819054906101000a900467ffffffffffffffff16809291906124d59061542e565b91906101000a81548167ffffffffffffffff021916908367ffffffffffffffff16021790555050817f66b50d7625dfb6f087c9fbbb0b7094393200578cef60691f59652d47c3df9c978286866000866040516125319190614b95565b9081526020016040518091039020600088815260200190815260200160002060009054906101000a900467ffffffffffffffff16604051612575949392919061545e565b60405180910390a250505050565b6060612590848484612d77565b90509392505050565b6125ae8383603c6125a985612f46565b610de2565b505050565b60007f639d1d1b000000000000000000000000000000000000000000000000000000007bffffffffffffffffffffffffffffffffffffffffffffffffffffffff1916827bffffffffffffffffffffffffffffffffffffffffffffffffffffffff19161480612626575061262582612faa565b5b9050919050565b6126356137ed565b828160000181905250818160c001818152505061265181612b58565b92915050565b6000816000015151826020015110159050919050565b606061269d826020015161268984600001518560200151613024565b84600001516130a09092919063ffffffff16565b9050919050565b60606126d68260a001518360a001518460c001516126c29190614bdb565b84600001516130a09092919063ffffffff16565b9050919050565b6000815183511480156126fc57506126fb8360008460008751613135565b5b905092915050565b6000336040516020016127179190614b49565b6040516020818303038152906040529050600088805190602001209050600061274b87878a6130a09092919063ffffffff16565b9050841561294f576000600660008667ffffffffffffffff1667ffffffffffffffff1681526020019081526020016000208460405161278a9190614b95565b908152602001604051809103902060008d8152602001908152602001600020600084815260200190815260200160002060008b61ffff1661ffff16815260200190815260200160002080546127de90614ad0565b90501461288457600760008567ffffffffffffffff1667ffffffffffffffff1681526020019081526020016000208360405161281a9190614b95565b908152602001604051809103902060008c81526020019081526020016000206000838152602001908152602001600020600081819054906101000a900461ffff1680929190612868906154a5565b91906101000a81548161ffff021916908361ffff160217905550505b600660008567ffffffffffffffff1667ffffffffffffffff168152602001908152602001600020836040516128b99190614b95565b908152602001604051809103902060008c8152602001908152602001600020600083815260200190815260200160002060008a61ffff1661ffff168152602001908152602001600020600061290e9190613838565b8a7fd657e270b9c31ed4b6f845e4e1846fea336de4559633bd886bb4b6c7700f272b848c8c604051612942939291906154dd565b60405180910390a2612b4b565b6000600660008667ffffffffffffffff1667ffffffffffffffff168152602001908152602001600020846040516129869190614b95565b908152602001604051809103902060008d8152602001908152602001600020600084815260200190815260200160002060008b61ffff1661ffff16815260200190815260200160002080546129da90614ad0565b905003612a8057600760008567ffffffffffffffff1667ffffffffffffffff16815260200190815260200160002083604051612a169190614b95565b908152602001604051809103902060008c81526020019081526020016000206000838152602001908152602001600020600081819054906101000a900461ffff1680929190612a6490615522565b91906101000a81548161ffff021916908361ffff160217905550505b80600660008667ffffffffffffffff1667ffffffffffffffff16815260200190815260200160002084604051612ab69190614b95565b908152602001604051809103902060008d8152602001908152602001600020600084815260200190815260200160002060008b61ffff1661ffff1681526020019081526020016000209081612b0b9190615093565b508a7f3a30e582a6a4515ff923d80aae09c39c75c64bd8c2b127c72c6a3a864665041d848c8c85604051612b42949392919061554c565b60405180910390a25b5050505050505050505050565b8060c0015181602001818152505080600001515181602001511015612c9b576000612b8b82600001518360200151613024565b8260200151612b9a91906155a6565b9050612bb381836000015161315990919063ffffffff16565b826040019061ffff16908161ffff1681525050600281612bd391906155a6565b9050612bec81836000015161315990919063ffffffff16565b826060019061ffff16908161ffff1681525050600281612c0c91906155a6565b9050612c2581836000015161318890919063ffffffff16565b826080019063ffffffff16908163ffffffff1681525050600481612c4991906155a6565b90506000612c6482846000015161315990919063ffffffff16565b61ffff169050600282612c7791906155a6565b9150818360a00181815250508082612c8f91906155a6565b8360c001818152505050505b50565b6000806000612cad85856131b9565b915091506000801b8203612d175760018551612cc99190614bdb565b8414612d0a576040517f08c379a0000000000000000000000000000000000000000000000000000000008152600401612d0190615626565b60405180910390fd5b6000801b92505050612d4e565b612d218582612c9e565b82604051602001612d33929190615667565b60405160208183030381529060405280519060200120925050505b92915050565b60006014825114612d6457600080fd5b600c6101000a6020830151049050919050565b60608282905067ffffffffffffffff811115612d9657612d95613d76565b5b604051908082528060200260200182016040528015612dc957816020015b6060815260200190600190039081612db45790505b50905060005b83839050811015612f3e576000801b8514612e6e576000848483818110612df957612df8615693565b5b9050602002810190612e0b91906156d1565b600490602492612e1d9392919061573e565b90612e289190615779565b9050858114612e6c576040517f08c379a0000000000000000000000000000000000000000000000000000000008152600401612e639061584a565b60405180910390fd5b505b6000803073ffffffffffffffffffffffffffffffffffffffff16868685818110612e9b57612e9a615693565b5b9050602002810190612ead91906156d1565b604051612ebb929190614a88565b600060405180830381855af49150503d8060008114612ef6576040519150601f19603f3d011682016040523d82523d6000602084013e612efb565b606091505b509150915081612f0a57600080fd5b80848481518110612f1e57612f1d615693565b5b602002602001018190525050508080612f369061586a565b915050612dcf565b509392505050565b6060601467ffffffffffffffff811115612f6357612f62613d76565b5b6040519080825280601f01601f191660200182016040528015612f955781602001600182028036833780820191505090505b509050600c6101000a82026020820152919050565b60007f493cf94d000000000000000000000000000000000000000000000000000000007bffffffffffffffffffffffffffffffffffffffffffffffffffffffff1916827bffffffffffffffffffffffffffffffffffffffffffffffffffffffff1916148061301d575061301c82613277565b5b9050919050565b6000808290505b60011561308b5783518110613043576130426158b2565b5b6000613058828661335990919063ffffffff16565b60ff16905060018161306a91906155a6565b8261307591906155a6565b915060008103613085575061308b565b5061302b565b82816130979190614bdb565b91505092915050565b6060835182846130b091906155a6565b11156130bb57600080fd5b60008267ffffffffffffffff8111156130d7576130d6613d76565b5b6040519080825280601f01601f1916602001820160405280156131095781602001600182028036833780820191505090505b5090506000806020830191508560208801019050613128828287613384565b8293505050509392505050565b60006131428484846133e8565b61314d8787856133e8565b14905095945050505050565b6000825160028361316a91906155a6565b111561317557600080fd5b61ffff8260028501015116905092915050565b6000825160048361319991906155a6565b11156131a457600080fd5b63ffffffff8260048501015116905092915050565b600080835183106131ff576040517f08c379a00000000000000000000000000000000000000000000000000000000081526004016131f69061592d565b60405180910390fd5b600084848151811061321457613213615693565b5b602001015160f81c60f81b60f81c60ff169050600081111561324e576132478560018661324191906155a6565b83613414565b9250613255565b6000801b92505b6001818561326391906155a6565b61326d91906155a6565b9150509250929050565b60007f183f516b000000000000000000000000000000000000000000000000000000007bffffffffffffffffffffffffffffffffffffffffffffffffffffffff1916827bffffffffffffffffffffffffffffffffffffffffffffffffffffffff1916148061334257507f09cb2687000000000000000000000000000000000000000000000000000000007bffffffffffffffffffffffffffffffffffffffffffffffffffffffff1916827bffffffffffffffffffffffffffffffffffffffffffffffffffffffff1916145b80613352575061335182613440565b5b9050919050565b600082828151811061336e5761336d615693565b5b602001015160f81c60f81b60f81c905092915050565b5b602081106133c3578151835260208361339e91906155a6565b92506020826133ad91906155a6565b91506020816133bc9190614bdb565b9050613385565b60006001826020036101000a0390508019835116818551168181178652505050505050565b6000835182846133f891906155a6565b111561340357600080fd5b818360208601012090509392505050565b60008351828461342491906155a6565b111561342f57600080fd5b818360208601012090509392505050565b60007fc4b82906000000000000000000000000000000000000000000000000000000007bffffffffffffffffffffffffffffffffffffffffffffffffffffffff1916827bffffffffffffffffffffffffffffffffffffffffffffffffffffffff191614806134b357506134b2826134ba565b5b9050919050565b60007ebf4001000000000000000000000000000000000000000000000000000000007bffffffffffffffffffffffffffffffffffffffffffffffffffffffff1916827bffffffffffffffffffffffffffffffffffffffffffffffffffffffff1916148061352c575061352b82613533565b5b9050919050565b60007fdd1f458c000000000000000000000000000000000000000000000000000000007bffffffffffffffffffffffffffffffffffffffffffffffffffffffff1916827bffffffffffffffffffffffffffffffffffffffffffffffffffffffff191614806135a657506135a5826135ad565b5b9050919050565b60007fbbf0d758000000000000000000000000000000000000000000000000000000007bffffffffffffffffffffffffffffffffffffffffffffffffffffffff1916827bffffffffffffffffffffffffffffffffffffffffffffffffffffffff1916148061367857507f780a54ba000000000000000000000000000000000000000000000000000000007bffffffffffffffffffffffffffffffffffffffffffffffffffffffff1916827bffffffffffffffffffffffffffffffffffffffffffffffffffffffff1916145b8061368857506136878261368f565b5b9050919050565b60007f4821b72c000000000000000000000000000000000000000000000000000000007bffffffffffffffffffffffffffffffffffffffffffffffffffffffff1916827bffffffffffffffffffffffffffffffffffffffffffffffffffffffff19161480613702575061370182613709565b5b9050919050565b60007f4fbf0433000000000000000000000000000000000000000000000000000000007bffffffffffffffffffffffffffffffffffffffffffffffffffffffff1916827bffffffffffffffffffffffffffffffffffffffffffffffffffffffff1916148061377c575061377b82613783565b5b9050919050565b60007f01ffc9a7000000000000000000000000000000000000000000000000000000007bffffffffffffffffffffffffffffffffffffffffffffffffffffffff1916827bffffffffffffffffffffffffffffffffffffffffffffffffffffffff1916149050919050565b6040518060e001604052806060815260200160008152602001600061ffff168152602001600061ffff168152602001600063ffffffff16815260200160008152602001600081525090565b50805461384490614ad0565b6000825580601f106138565750613875565b601f0160209004906000526020600020908101906138749190613878565b5b50565b5b80821115613891576000816000905550600101613879565b5090565b6000604051905090565b600080fd5b600080fd5b600080fd5b600080fd5b600080fd5b60008083601f8401126138ce576138cd6138a9565b5b8235905067ffffffffffffffff8111156138eb576138ea6138ae565b5b602083019150836001820283011115613907576139066138b3565b5b9250929050565b6000819050919050565b6139218161390e565b811461392c57600080fd5b50565b60008135905061393e81613918565b92915050565b6000819050919050565b61395781613944565b811461396257600080fd5b50565b6000813590506139748161394e565b92915050565b600080600080606085870312156139945761399361389f565b5b600085013567ffffffffffffffff8111156139b2576139b16138a4565b5b6139be878288016138b8565b945094505060206139d18782880161392f565b92505060406139e287828801613965565b91505092959194509250565b6139f781613944565b82525050565b600081519050919050565b600082825260208201905092915050565b60005b83811015613a37578082015181840152602081019050613a1c565b60008484015250505050565b6000601f19601f8301169050919050565b6000613a5f826139fd565b613a698185613a08565b9350613a79818560208601613a19565b613a8281613a43565b840191505092915050565b6000604082019050613aa260008301856139ee565b8181036020830152613ab48184613a54565b90509392505050565b60007fffffffff0000000000000000000000000000000000000000000000000000000082169050919050565b613af281613abd565b8114613afd57600080fd5b50565b600081359050613b0f81613ae9565b92915050565b600060208284031215613b2b57613b2a61389f565b5b6000613b3984828501613b00565b91505092915050565b60008115159050919050565b613b5781613b42565b82525050565b6000602082019050613b726000830184613b4e565b92915050565b600080600060408486031215613b9157613b9061389f565b5b600084013567ffffffffffffffff811115613baf57613bae6138a4565b5b613bbb868287016138b8565b93509350506020613bce8682870161392f565b9150509250925092565b60006020820190508181036000830152613bf28184613a54565b905092915050565b600080600060408486031215613c1357613c1261389f565b5b6000613c218682870161392f565b935050602084013567ffffffffffffffff811115613c4257613c416138a4565b5b613c4e868287016138b8565b92509250509250925092565b60008083601f840112613c7057613c6f6138a9565b5b8235905067ffffffffffffffff811115613c8d57613c8c6138ae565b5b602083019150836001820283011115613ca957613ca86138b3565b5b9250929050565b60008060008060408587031215613cca57613cc961389f565b5b600085013567ffffffffffffffff811115613ce857613ce76138a4565b5b613cf4878288016138b8565b9450945050602085013567ffffffffffffffff811115613d1757613d166138a4565b5b613d2387828801613c5a565b925092505092959194509250565b600067ffffffffffffffff82169050919050565b613d4e81613d31565b8114613d5957600080fd5b50565b600081359050613d6b81613d45565b92915050565b600080fd5b7f4e487b7100000000000000000000000000000000000000000000000000000000600052604160045260246000fd5b613dae82613a43565b810181811067ffffffffffffffff82111715613dcd57613dcc613d76565b5b80604052505050565b6000613de0613895565b9050613dec8282613da5565b919050565b600067ffffffffffffffff821115613e0c57613e0b613d76565b5b613e1582613a43565b9050602081019050919050565b82818337600083830152505050565b6000613e44613e3f84613df1565b613dd6565b905082815260208101848484011115613e6057613e5f613d71565b5b613e6b848285613e22565b509392505050565b600082601f830112613e8857613e876138a9565b5b8135613e98848260208601613e31565b91505092915050565b600067ffffffffffffffff821115613ebc57613ebb613d76565b5b613ec582613a43565b9050602081019050919050565b6000613ee5613ee084613ea1565b613dd6565b905082815260208101848484011115613f0157613f00613d71565b5b613f0c848285613e22565b509392505050565b600082601f830112613f2957613f286138a9565b5b8135613f39848260208601613ed2565b91505092915050565b60008060008060808587031215613f5c57613f5b61389f565b5b6000613f6a87828801613d5c565b945050602085013567ffffffffffffffff811115613f8b57613f8a6138a4565b5b613f9787828801613e73565b9350506040613fa88782880161392f565b925050606085013567ffffffffffffffff811115613fc957613fc86138a4565b5b613fd587828801613f14565b91505092959194509250565b600081519050919050565b600082825260208201905092915050565b600061400882613fe1565b6140128185613fec565b9350614022818560208601613a19565b61402b81613a43565b840191505092915050565b600060208201905081810360008301526140508184613ffd565b905092915050565b600080600080606085870312156140725761407161389f565b5b600085013567ffffffffffffffff8111156140905761408f6138a4565b5b61409c878288016138b8565b945094505060206140af87828801613965565b925050604085013567ffffffffffffffff8111156140d0576140cf6138a4565b5b6140dc87828801613e73565b91505092959194509250565b600061ffff82169050919050565b6140ff816140e8565b811461410a57600080fd5b50565b60008135905061411c816140f6565b92915050565b60008060008060006080868803121561413e5761413d61389f565b5b600086013567ffffffffffffffff81111561415c5761415b6138a4565b5b614168888289016138b8565b9550955050602061417b8882890161392f565b935050604061418c8882890161392f565b925050606061419d8882890161410d565b9150509295509295909350565b600080604083850312156141c1576141c061389f565b5b600083013567ffffffffffffffff8111156141df576141de6138a4565b5b6141eb85828601613e73565b92505060206141fc8582860161392f565b9150509250929050565b61420f81613d31565b82525050565b600060208201905061422a6000830184614206565b92915050565b6000604082019050818103600083015261424a8185613a54565b9050818103602083015261425e8184613a54565b90509392505050565b600080600080606085870312156142815761428061389f565b5b600085013567ffffffffffffffff81111561429f5761429e6138a4565b5b6142ab878288016138b8565b945094505060206142be8782880161392f565b92505060406142cf8782880161392f565b91505092959194509250565b60008083601f8401126142f1576142f06138a9565b5b8235905067ffffffffffffffff81111561430e5761430d6138ae565b5b60208301915083602082028301111561432a576143296138b3565b5b9250929050565b600080602083850312156143485761434761389f565b5b600083013567ffffffffffffffff811115614366576143656138a4565b5b614372858286016142db565b92509250509250929050565b600081519050919050565b600082825260208201905092915050565b6000819050602082019050919050565b600082825260208201905092915050565b60006143c6826139fd565b6143d081856143aa565b93506143e0818560208601613a19565b6143e981613a43565b840191505092915050565b600061440083836143bb565b905092915050565b6000602082019050919050565b60006144208261437e565b61442a8185614389565b93508360208202850161443c8561439a565b8060005b85811015614478578484038952815161445985826143f4565b945061446483614408565b925060208a01995050600181019050614440565b50829750879550505050505092915050565b600060208201905081810360008301526144a48184614415565b905092915050565b600080600080608085870312156144c6576144c561389f565b5b60006144d487828801613d5c565b945050602085013567ffffffffffffffff8111156144f5576144f46138a4565b5b61450187828801613e73565b93505060406145128782880161392f565b925050606061452387828801613965565b91505092959194509250565b6000806000806000806060878903121561454c5761454b61389f565b5b600087013567ffffffffffffffff81111561456a576145696138a4565b5b61457689828a016138b8565b9650965050602087013567ffffffffffffffff811115614599576145986138a4565b5b6145a589828a016138b8565b9450945050604087013567ffffffffffffffff8111156145c8576145c76138a4565b5b6145d489828a016138b8565b92509250509295509295509295565b600073ffffffffffffffffffffffffffffffffffffffff82169050919050565b600061460e826145e3565b9050919050565b61461e81614603565b82525050565b60006020820190506146396000830184614615565b92915050565b6000806000606084860312156146585761465761389f565b5b600061466686828701613d5c565b935050602084013567ffffffffffffffff811115614687576146866138a4565b5b61469386828701613e73565b92505060406146a48682870161392f565b9150509250925092565b600080600080604085870312156146c8576146c761389f565b5b600085013567ffffffffffffffff8111156146e6576146e56138a4565b5b6146f2878288016138b8565b9450945050602085013567ffffffffffffffff811115614715576147146138a4565b5b614721878288016138b8565b925092505092959194509250565b6000806000806000806060878903121561474c5761474b61389f565b5b600087013567ffffffffffffffff81111561476a576147696138a4565b5b61477689828a016138b8565b9650965050602087013567ffffffffffffffff811115614799576147986138a4565b5b6147a589828a01613c5a565b9450945050604087013567ffffffffffffffff8111156147c8576147c76138a4565b5b6147d489828a01613c5a565b92509250509295509295509295565b6000806000806000606086880312156147ff576147fe61389f565b5b600086013567ffffffffffffffff81111561481d5761481c6138a4565b5b614829888289016138b8565b9550955050602061483c88828901613965565b935050604086013567ffffffffffffffff81111561485d5761485c6138a4565b5b614869888289016138b8565b92509250509295509295909350565b6000806000806000606086880312156148945761489361389f565b5b600086013567ffffffffffffffff8111156148b2576148b16138a4565b5b6148be888289016138b8565b955095505060206148d18882890161392f565b935050604086013567ffffffffffffffff8111156148f2576148f16138a4565b5b6148fe88828901613c5a565b92509250509295509295909350565b600080602083850312156149245761492361389f565b5b600083013567ffffffffffffffff811115614942576149416138a4565b5b61494e858286016138b8565b92509250509250929050565b6000806000604084860312156149735761497261389f565b5b60006149818682870161392f565b935050602084013567ffffffffffffffff8111156149a2576149a16138a4565b5b6149ae868287016142db565b92509250509250925092565b60006149c5826145e3565b9050919050565b6149d5816149ba565b81146149e057600080fd5b50565b6000813590506149f2816149cc565b92915050565b600080600060408486031215614a1157614a1061389f565b5b600084013567ffffffffffffffff811115614a2f57614a2e6138a4565b5b614a3b868287016138b8565b93509350506020614a4e868287016149e3565b9150509250925092565b600081905092915050565b6000614a6f8385614a58565b9350614a7c838584613e22565b82840190509392505050565b6000614a95828486614a63565b91508190509392505050565b7f4e487b7100000000000000000000000000000000000000000000000000000000600052602260045260246000fd5b60006002820490506001821680614ae857607f821691505b602082108103614afb57614afa614aa1565b5b50919050565b60008160601b9050919050565b6000614b1982614b01565b9050919050565b6000614b2b82614b0e565b9050919050565b614b43614b3e826149ba565b614b20565b82525050565b6000614b558284614b32565b60148201915081905092915050565b6000614b6f826139fd565b614b798185614a58565b9350614b89818560208601613a19565b80840191505092915050565b6000614ba18284614b64565b915081905092915050565b7f4e487b7100000000000000000000000000000000000000000000000000000000600052601160045260246000fd5b6000614be682613944565b9150614bf183613944565b9250828203905081811115614c0957614c08614bac565b5b92915050565b600082905092915050565b60008190508160005260206000209050919050565b60006020601f8301049050919050565b600082821b905092915050565b600060088302614c7c7fffffffffffffffffffffffffffffffffffffffffffffffffffffffffffffffff82614c3f565b614c868683614c3f565b95508019841693508086168417925050509392505050565b6000819050919050565b6000614cc3614cbe614cb984613944565b614c9e565b613944565b9050919050565b6000819050919050565b614cdd83614ca8565b614cf1614ce982614cca565b848454614c4c565b825550505050565b600090565b614d06614cf9565b614d11818484614cd4565b505050565b5b81811015614d3557614d2a600082614cfe565b600181019050614d17565b5050565b601f821115614d7a57614d4b81614c1a565b614d5484614c2f565b81016020851015614d63578190505b614d77614d6f85614c2f565b830182614d16565b50505b505050565b600082821c905092915050565b6000614d9d60001984600802614d7f565b1980831691505092915050565b6000614db68383614d8c565b9150826002028217905092915050565b614dd08383614c0f565b67ffffffffffffffff811115614de957614de8613d76565b5b614df38254614ad0565b614dfe828285614d39565b6000601f831160018114614e2d5760008415614e1b578287013590505b614e258582614daa565b865550614e8d565b601f198416614e3b86614c1a565b60005b82811015614e6357848901358255600182019150602085019450602081019050614e3e565b86831015614e805784890135614e7c601f891682614d8c565b8355505b6001600288020188555050505b50505050505050565b6000614ea28385613a08565b9350614eaf838584613e22565b614eb883613a43565b840190509392505050565b6000614ecf8385613fec565b9350614edc838584613e22565b614ee583613a43565b840190509392505050565b60006060820190508181036000830152614f0a8188613a54565b90508181036020830152614f1f818688614e96565b90508181036040830152614f34818486614ec3565b90509695505050505050565b60006080820190508181036000830152614f5a8188613a54565b90508181036020830152614f6f818688614e96565b9050614f7e60408301856139ee565b8181036060830152614f908184613a54565b90509695505050505050565b6000614fb7614fb2614fad846145e3565b614c9e565b6145e3565b9050919050565b6000614fc982614f9c565b9050919050565b6000614fdb82614fbe565b9050919050565b614feb81614fd0565b82525050565b6000606082019050818103600083015261500b8187613a54565b90508181036020830152615020818587614e96565b905061502f6040830184614fe2565b95945050505050565b60008190508160005260206000209050919050565b601f82111561508e5761505f81615038565b61506884614c2f565b81016020851015615077578190505b61508b61508385614c2f565b830182614d16565b50505b505050565b61509c826139fd565b67ffffffffffffffff8111156150b5576150b4613d76565b5b6150bf8254614ad0565b6150ca82828561504d565b600060209050601f8311600181146150fd57600084156150eb578287015190505b6150f58582614daa565b86555061515d565b601f19841661510b86615038565b60005b828110156151335784890151825560018201915060208501945060208101905061510e565b86831015615150578489015161514c601f891682614d8c565b8355505b6001600288020188555050505b505050505050565b6000608082019050818103600083015261517f818a613a54565b9050818103602083015261519481888a614e96565b905081810360408301526151a9818688614e96565b905081810360608301526151be818486614e96565b905098975050505050505050565b600082905092915050565b6151e183836151cc565b67ffffffffffffffff8111156151fa576151f9613d76565b5b6152048254614ad0565b61520f82828561504d565b6000601f83116001811461523e576000841561522c578287013590505b6152368582614daa565b86555061529e565b601f19841661524c86615038565b60005b828110156152745784890135825560018201915060208501945060208101905061524f565b86831015615291578489013561528d601f891682614d8c565b8355505b6001600288020188555050505b50505050505050565b600060608201905081810360008301526152c18188613a54565b905081810360208301526152d6818688614e96565b905081810360408301526152eb818486614e96565b90509695505050505050565b600081905092915050565b600061530e83856152f7565b935061531b838584613e22565b82840190509392505050565b6000615334828486615302565b91508190509392505050565b6000608082019050818103600083015261535a818a613a54565b9050818103602083015261536f81888a614e96565b90508181036040830152615384818688614ec3565b90508181036060830152615399818486614ec3565b905098975050505050505050565b600060608201905081810360008301526153c18187613a54565b905081810360208301526153d58186613a54565b905081810360408301526153ea818486614e96565b905095945050505050565b6000604082019050818103600083015261540f8186613a54565b90508181036020830152615424818486614e96565b9050949350505050565b600061543982613d31565b915067ffffffffffffffff820361545357615452614bac565b5b600182019050919050565b600060608201905081810360008301526154788187613a54565b9050818103602083015261548d818587614e96565b905061549c6040830184614206565b95945050505050565b60006154b0826140e8565b9150600082036154c3576154c2614bac565b5b600182039050919050565b6154d7816140e8565b82525050565b600060608201905081810360008301526154f78186613a54565b9050818103602083015261550b8185613a54565b905061551a60408301846154ce565b949350505050565b600061552d826140e8565b915061ffff820361554157615540614bac565b5b600182019050919050565b600060808201905081810360008301526155668187613a54565b9050818103602083015261557a8186613a54565b905061558960408301856154ce565b818103606083015261559b8184613a54565b905095945050505050565b60006155b182613944565b91506155bc83613944565b92508282019050808211156155d4576155d3614bac565b5b92915050565b7f6e616d65686173683a204a756e6b20617420656e64206f66206e616d65000000600082015250565b6000615610601d83613fec565b915061561b826155da565b602082019050919050565b6000602082019050818103600083015261563f81615603565b9050919050565b6000819050919050565b61566161565c8261390e565b615646565b82525050565b60006156738285615650565b6020820191506156838284615650565b6020820191508190509392505050565b7f4e487b7100000000000000000000000000000000000000000000000000000000600052603260045260246000fd5b600080fd5b600080fd5b600080fd5b600080833560016020038436030381126156ee576156ed6156c2565b5b80840192508235915067ffffffffffffffff8211156157105761570f6156c7565b5b60208301925060018202360383131561572c5761572b6156cc565b5b509250929050565b600080fd5b600080fd5b6000808585111561575257615751615734565b5b8386111561576357615762615739565b5b6001850283019150848603905094509492505050565b600061578583836151cc565b82615790813561390e565b925060208210156157d0576157cb7fffffffffffffffffffffffffffffffffffffffffffffffffffffffffffffffff83602003600802614c3f565b831692505b505092915050565b7f6d756c746963616c6c3a20416c6c207265636f726473206d757374206861766560008201527f2061206d61746368696e67206e616d6568617368000000000000000000000000602082015250565b6000615834603483613fec565b915061583f826157d8565b604082019050919050565b6000602082019050818103600083015261586381615827565b9050919050565b600061587582613944565b91507fffffffffffffffffffffffffffffffffffffffffffffffffffffffffffffffff82036158a7576158a6614bac565b5b600182019050919050565b7f4e487b7100000000000000000000000000000000000000000000000000000000600052600160045260246000fd5b7f726561644c6162656c3a20496e646578206f7574206f6620626f756e64730000600082015250565b6000615917601e83613fec565b9150615922826158e1565b602082019050919050565b600060208201905081810360008301526159468161590a565b905091905056fea26469706673582212200b8589deebdc1c7296a3594d88583e29bd34a30d503d09efcdfe1147a256298064736f6c63430008130033",
  "linkReferences": {},
  "deployedLinkReferences": {}
}